:100000000C9434000C9451000C9451000C94510049
:100010000C9451000C9451000C9451000C9451001C
:100020000C9451000C9451000C9451000C9451000C
:100030000C9451000C9451000C9451000C945100FC
:100040000C9451000C9451000C94CB000C94510072
:100050000C9451000C9451000C9451000C945100DC
:100060000C9451000C94510011241FBECFEFD8E026
:10007000DEBFCDBF11E0A0E0B1E0E6E1F2E002C0FA
:1000800005900D92AE30B107D9F721E0AEE0B1E0B6
:1000900001C01D92A135B207E1F70E9453000C94F4
:1000A00009010C94000020E040E068E087E690E061
:1000B0000E94650080E091E00E94A0008FE99FE02F
:1000C0000197F1F700C00000EECF9093C500809338
:1000D000C400E1ECF0E088E1808380818068808367
:1000E000E2ECF0E08081242B282B20838081866045
:1000F0008083E0ECF0E08081108210924F0110923A
:1001000050017894089590910E01913021F49BB1A3
:1001100098609BB903C09BB1977F9BB99091C00039
:1001200095FFFCCF8093C60080910E01813021F4B1
:100130008BB1877F8BB908958BB1877F8BB9089579
:10014000CF93DF93EC0103C021960E948300888146
:100150008111FACF8DE00E9483008AE00E94830023
:10016000DF91CF910895FC01E05CFF4F308121E0E9
:10017000230F203408F020E0FC01EF5BFF4F4081AB
:10018000241741F0FC01E30FF11D6083FC01E05CEA
:10019000FF4F208308951F920F920FB60F921124E4
:1001A0002F933F934F935F936F937F938F939F937F
:1001B000AF93BF93EF93FF9380910E01813021F4B1
:1001C0008BB184608BB903C08BB18B7F8BB960918D
:1001D000C6008FE091E00E94B30080910E01813053
:1001E00021F48BB18B7F8BB903C08BB18B7F8BB923
:1001F000FF91EF91BF91AF919F918F917F916F91FF
:100200005F914F913F912F910F900FBE0F901F90D4
:060210001895F894FFCFE1
:0E02160048656C6C6F20776F726C642100007D
:00000001FF
