:107000000C94C0390C94DD390C94DD390C94DD39C5
:107010000C94DD390C94DD390C94DD390C94DD3998
:107020000C94DD390C94DD390C94DD390C94DD3988
:107030000C94DD390C94DD390C94DD390C94DD3978
:107040000C94DD390C94DD390C94DD390C94DD3968
:107050000C94DD390C94DD390C94DD390C94DD3958
:107060000C94663C0C94DD39000000000000FFFF2A
:10707000FFFFFFFFFFFFFFFFFFFFFFFFFFFFFFFF20
:10708000FFFFFFFFFFFFFFFFFFFFFFFFFFFFFFFF10
:10709000FFFFFFFFFFFFFFFFFFFFFFFFFFFFFFFF00
:1070A000FFFFFFFFFFFFFFFFFFFFFFFFFFFFFFFFF0
:1070B000FFFFFFFFFFFFFFFFFFFFFFFFFFFFFFFFE0
:1070C000FFFFFFFFFFFFFFFFFFFFFFFFFFFFFFFFD0
:1070D000FFFFFFFFFFFFFFFFFFFFFFFFFFFFFFFFC0
:1070E000FFFFFFFFFFFFFFFFFFFFFFFFFFFFFFFFB0
:1070F000FFFFFFFFFFFFFFFFFFFFFFFFFFFFFFFFA0
:10710000FFFFFFFFFFFFFFFFFFFFFFFFFFFFFFFF8F
:10711000FFFFFFFFFFFFFFFFFFFFFFFFFFFFFFFF7F
:10712000FFFFFFFFFFFFFFFF000000000000000067
:10713000002F000000000700070000147F147F14D8
:1071400000242A7F2A12006264081323003649555E
:10715000225000000503000000001C224100000036
:1071600041221C000014083E08140008083E0808CC
:10717000000000A060000008080808080000606027
:107180000000002010080402003E5149453E000066
:10719000427F4000004261514946002141454B3148
:1071A000001814127F10002745454539003C4A4914
:1071B0004930000171090503003649494936000686
:1071C0004949291E000036360000000056360000EE
:1071D0000008142241000014141414140000412269
:1071E000140800020151090600324959513E007C41
:1071F0001211127C007F49494936003E414141222B
:10720000007F4141221C007F49494941007F090913
:107210000901003E4149497A007F0808087F0000C3
:10722000417F4100002040413F01007F081422417E
:10723000007F40404040007F020C027F007F040836
:10724000107F003E4141413E007F09090906003E92
:107250004151215E007F09192946004649494931BB
:107260000001017F0101003F4040403F001F2040DE
:10727000201F003F4038403F00631408146300079C
:107280000870080700615149454300007F414100F3
:1072900000552A552A55000041417F000004020193
:1072A0000204004040404040000001020400002071
:1072B00054545478007F48444438003844444420AF
:1072C00000384444487F00385454541800087E095C
:1072D00001020018A4A4A47C007F08040478000024
:1072E000447D4000004080847D00007F10284400E1
:1072F0000000417F4000007C04180478007C0804F2
:10730000047800384444443800FC2424241800182D
:10731000242418FC007C0804040800485454542019
:1073200000043F444020003C4040207C001C2040A2
:10733000201C003C4030403C004428102844001CE5
:10734000A0A0A07C004464544C4400000877410095
:1073500000000063000000004177080000080408F6
:107360000804AAAAAAAAAAAAA83FD30040A0C0DAE1
:107370001281FFA4A6D5808D04AFD9F1DB202000B7
:1073800011241FBECFEFD8E0DEBFCDBF12E0A0E0DA
:10739000B1E0EEEEFAE702C005900D92AA35B10712
:1073A000D9F726E0AAE5B2E001C01D92A836B207DF
:1073B000E1F70E94973A0C94753D0C940038EF92D7
:1073C000FF920F931F93CF93DF9300D000D01F92B3
:1073D000CDB7DEB77C018B01BE016F5F7F4F85E0CB
:1073E000FB0111928A95E9F7F8011182108240E1C0
:1073F000C7010E94403DF0E1EF16F104A0F4F8014E
:1074000001900020E9F7319780E398E7918380832A
:1074100080E390E093838283BE016F5F7F4FC8015A
:107420000E94353D10C0F80101900020E9F7319726
:1074300080E398E7918380831282BE016F5F7F4F64
:10744000C8010E94353D0F900F900F900F900F9044
:10745000DF91CF911F910F91FF90EF900895CF9200
:10746000DF92EF92FF920F931F93CF93DF937C01F4
:10747000082FF89483E0F70180935700E89507B64A
:1074800000FCFDCF10E03AC060E070E0802F90E09B
:107490000E948D3BC12CD12CF601C081D0E081E04F
:1074A000800F60E070E090E00E948D3BF6018081EB
:1074B00090E0982F8827C82BD92B0E5F0E94F63BAF
:1074C00040E060E084EB91E00E94FF3B6701C10E69
:1074D000D11C6EE576E0C6010E94DF3940E160E034
:1074E0008EE596E00E94FF3B0E94DE3B81E0F601C4
:1074F0000E0180935700E89511241E5F103408F4A4
:10750000C3CF85E0F70180935700E89507B600FCEC
:10751000FDCF81E180935700E8957894DF91CF917A
:107520001F910F91FF90EF90DF90CF900895CF9231
:10753000DF92EF92FF926CE081E00E94BC3C0E94DF
:10754000AB3B0E94F63B0E94DE3B0E94F63B4CE1C7
:1075500060E389EC91E00E94FF3B0E94DE3B0E94C9
:10756000F63B40E060E08FEC91E00E94FF3B0E9420
:10757000DE3B40E060E08DED91E00E94FF3B0E9429
:10758000DE3B40E060E08CEE91E00E94FF3B0E9419
:10759000DE3B0E94F63B40E160E08CEF91E00E9410
:1075A000FF3B0E94DE3B2FEF3FEF40E051E064EBFA
:1075B00070E080E090E00E942C3BC12CD12C760141
:1075C00008C0C6010E942F3A20E8C20ED11CE11C5F
:1075D000F11C81E0C816D806E104F10490F30E9482
:1075E000F63B40E060E089E192E00E94FF3B0E94B0
:1075F000DE3B9FEF29E688E1915020408040E1F793
:1076000000C000000C94000080E090E0FF90EF903C
:10761000DF90CF900895811524E09207D8F4F9996E
:10762000FECFFA99FECF1FBAF8949C01082E02C033
:10763000369527950A94E2F722BD81BD60BD8FB3D0
:1076400084608FBB8FB382608FBBF999FECF789433
:1076500081E0089583E00895AF92BF92CF92DF92C8
:10766000EF92FF920F931F93CF93DF938B016A01E9
:10767000E901611524E0720708F03FC0811544E07C
:10768000940708F03CC09B01280F391F213034407B
:1076900008F037C019821882E12CF12C28C0F601BD
:1076A000EE0DFF1D6081288139812627422F4295EA
:1076B0004227042E469546954025042E46954025A2
:1076C0004770022E232F469507944795302D242787
:1076D0000694479530252427E9015C012FEFA21A73
:1076E000B20A0E940B3B4FEFE41AF40AC501E01600
:1076F000F10608F4D4CF81E005C082E003C083E046
:1077000001C082E0DF91CF911F910F91FF90EF9028
:10771000DF90CF90BF90AF900895811524E092073D
:10772000C0F4F999FECF1FBAF8949C01082E02C04C
:10773000369527950A94E2F722BD81BD8FB381600B
:107740008FBBF899FECF80B5FB018083789481E0F0
:10775000089583E00895CF93DF9360E08CE30E9467
:10776000E23C80E00E941D3DC8E6D3E7FE01849123
:107770000E941D3D2196F3E7C038DF07B9F7DF917E
:10778000CF910C94C43C60E08CE30E94E23C80E02A
:107790000E941D3D81E20E941D3D80E00E941D3D32
:1077A0008FE70E941D3D82E20E941D3D80E00E9405
:1077B0001D3D8FE30E941D3D0C94C43CCF93DF938D
:1077C0000E94C33B60E08CE30E94E23C80E40E94A4
:1077D0001D3DCAE5D2E089910E941D3D86E0CA3573
:1077E000D807C9F7DF91CF910C94C43CEAE5F2E0E9
:1077F000119286E0EA35F807D9F70C94DE3BCF9278
:10780000DF92FF920F931F93CF93DF939C01862FFC
:1078100067FD51C0403408F04EC0483020F0469516
:107820004695469501C040E066E00E94293D4F5FC5
:1078300050E0415051095695542F4427579547958C
:10784000982F990F890F880F6A01C80ED11CC601A5
:10785000F9018F01021B130B41914111FACF70E026
:1078600060E046E0F42EA72FB0E0A017B10728F59E
:10787000EC01C65ADD4F40E050E0A20FB31FEC917F
:107880006A01FE9EC00CD11C1124F601E859FF4884
:10789000E491E9934F5F5F4F4630510581F7AC01AA
:1078A0004A5F5F4F6F5F653119F44E5F5F4F60E075
:1078B0007F5FCA01D8CF8AE001C081E0DF91CF911C
:1078C0001F910F91FF90DF90CF9008951F920F921C
:1078D0000FB60F9211248F93EF93FF938091B9000D
:1078E000807629F0ECEBF0E08081806880838091E5
:1078F000B900882364F48091BB0080935D0681E029
:1079000080935C06ECEBF0E080818068808380915E
:10791000B900887A61F080915B068093BB0081E0BA
:1079200080935A06ECEBF0E0808180688083809140
:10793000B900887B61F080915B068093BB0081E099
:1079400080935A06ECEBF0E0808180688083809120
:10795000B9008C7049F010925B0610925A06ECEB5D
:10796000F0E0808180688083FF91EF918F910F908C
:107970000FBE0F901F9018958093B9006093B800C8
:1079800084E08093BC00089584E98093BC008091DA
:10799000BC0084FDFCCF089584EA8093BC008091F4
:1079A000BC008823E4F708958093BB0084E88093AB
:1079B000BC008091BC008823E4F708958091B90051
:1079C000887F0895CF93DF93D82FC62F0E94CC3C99
:1079D000C11108C00E94DE3C883021F00E94C43CE6
:1079E00081E028C0C13041F40E94DE3C803121F0AA
:1079F0000E94C43C82E01EC08D2F90E0880F991F2A
:107A00008C2B0E94D43CC11108C00E94DE3C8831FE
:107A100021F00E94C43C83E00DC0C13041F40E94BB
:107A2000DE3C803431F00E94C43C83E003C080E03F
:107A300001C080E0DF91CF9108950E94D43C0E9464
:107A4000DE3C883221F00E94C43C84E0089580E04E
:107A50000895991B79E004C0991F961708F0961BAA
:107A6000881F7A95C9F780950895FB01DC010D9078
:107A70000020E9F7119701900D920020E1F7089599
:107A8000BB274A3031F4992322F4BDE290958195C9
:107A90009F4F0C944C3DBB27FB015527AA27880F0D
:107AA000991FAA1FA41710F0A41B83955051B9F772
:107AB000A05DAA3308F0A95DA193009779F7B111F1
:107AC000B1931192CB010C94653DDC01FC01672F51
:107AD00071917723E1F7329704C07C916D937083A5
:0E7AE0006291AE17BF07C8F30895F894FFCF68
:107AEE000C9434000C943E000C943E000C943E001A
:107AFE000C943E000C943E000C943E000C943E0000
:107B0E000C943E000C943E000C943E000C943E00EF
:107B1E000C943E000C943E000C943E000C943E00DF
:107B2E000C943E000C943E000C943E000C943E00CF
:107B3E000C943E000C943E000C943E000C943E00BF
:107B4E000C943E000C943E0011241FBECFEFD8E0E3
:107B5E00DEBFCDBF0E9440000C9458000C94000074
:107B6E00259A90E22FEF39E688E12150304080408F
:107B7E00E1F700C0000085B1892785B92FEF39E6FE
:107B8E0088E1215030408040E1F700C00000EACF8C
:107B9E00F894FFCF57726974696E67206174206123
:107BAE006464726573733A200041546D656C0052C3
:107BBE00756E6E696E6720706F73742E0052756EDF
:107BCE006E696E6720706F73742E2E0052756E6E16
:107BDE00696E6720706F73742E2E2E004C6F616469
:107BEE00696E672066726F6D20454550524F4D206D
:107BFE00746F20666C617368004C6F6164656420FD
:107C0E0066726F6D20454550524F4D20746F206641
:107C1E006C617368212052756E6E696E672061709B
:107C2E00706C69636174696F6E2073656374696FDC
:0A7C3E006E2070726F6772616D00B6
:040000030000700089
:00000001FF
