:100000000C94C0010C94DD010C94DD010C94DD0115
:100010000C94DD010C94DD010C94DD010C94DD01E8
:100020000C94DD010C94DD010C94DD010C94DD01D8
:100030000C94DD010C94DD010C94B1030C94DD01F2
:100040000C94DD010C94DD010C94DD010C94DD01B8
:100050000C94DD010C94DD010C94DD010C94DD01A8
:100060000C94AD020C94DD01000000000000FFFFC5
:10007000FFFFFFFFFFFFFFFFFFFFFFFFFFFFFFFF90
:10008000FFFFFFFFFFFFFFFFFFFFFFFFFFFFFFFF80
:10009000FFFFFFFFFFFFFFFFFFFFFFFFFFFFFFFF70
:1000A000FFFFFFFFFFFFFFFFFFFFFFFFFFFFFFFF60
:1000B000FFFFFFFFFFFFFFFFFFFFFFFFFFFFFFFF50
:1000C000FFFFFFFFFFFFFFFFFFFFFFFFFFFFFFFF40
:1000D000FFFFFFFFFFFFFFFFFFFFFFFFFFFFFFFF30
:1000E000FFFFFFFFFFFFFFFFFFFFFFFFFFFFFFFF20
:1000F000FFFFFFFFFFFFFFFFFFFFFFFFFFFFFFFF10
:10010000FFFFFFFFFFFFFFFFFFFFFFFFFFFFFFFFFF
:10011000FFFFFFFFFFFFFFFFFFFFFFFFFFFFFFFFEF
:10012000FFFFFFFFFFFFFFFF0000000000000000D7
:10013000002F000000000700070000147F147F1448
:1001400000242A7F2A1200626408132300364955CE
:10015000225000000503000000001C2241000000A6
:1001600041221C000014083E08140008083E08083C
:10017000000000A060000008080808080000606097
:100180000000002010080402003E5149453E0000D6
:10019000427F4000004261514946002141454B31B8
:1001A000001814127F10002745454539003C4A4984
:1001B00049300001710905030036494949360006F6
:1001C0004949291E0000363600000000563600005E
:1001D00000081422410000141414141400004122D9
:1001E000140800020151090600324959513E007CB1
:1001F0001211127C007F49494936003E414141229B
:10020000007F4141221C007F49494941007F090983
:100210000901003E4149497A007F0808087F000033
:10022000417F4100002040413F01007F08142241EE
:10023000007F40404040007F020C027F007F0408A6
:10024000107F003E4141413E007F09090906003E02
:100250004151215E007F091929460046494949312B
:100260000001017F0101003F4040403F001F20404E
:10027000201F003F4038403F00631408146300070C
:100280000870080700615149454300007F41410063
:1002900000552A552A55000041417F000004020103
:1002A00002040040404040400000010204000020E1
:1002B00054545478007F484444380038444444201F
:1002C00000384444487F00385454541800087E09CC
:1002D00001020018A4A4A47C007F08040478000094
:1002E000447D4000004080847D00007F1028440051
:1002F0000000417F4000007C04180478007C080462
:10030000047800384444443800FC2424241800189D
:10031000242418FC007C0804040800485454542089
:1003200000043F444020003C4040207C001C204012
:10033000201C003C4030403C004428102844001C55
:10034000A0A0A07C004464544C4400000877410005
:100350000000006300000000417708000008040866
:100360000804AAAAAAAAAAAAA83FD30040A0C0DA51
:100370001281FFA4A6D5808D04AFD9F1DB20200027
:1003800011241FBECFEFD8E0DEBFCDBF11E0A0E04B
:10039000B1E0EAEDF7E002C005900D92A432B1079A
:1003A000D9F725E0A4E2B1E001C01D92AE32B20758
:1003B000E1F70E94E9010C94EB030C9400000E9409
:1003C0003D0240E060E080E091E00E9446020C9433
:1003D000250268E481E00E94FF020E94F2010E946F
:1003E000DF01FFCFCF93DF9360E08CE30E946D03CA
:1003F00080E00E94A403C8E6D3E0FE0184910E943D
:10040000A4032196F3E0C038DF07B9F7DF91CF915D
:100410000C94080360E08CE30E946D0380E00E946E
:10042000A40381E20E94A40380E00E94A4038FE75A
:100430000E94A40382E20E94A40380E00E94A4031D
:100440008FE30E94A4030C940803CF93DF930E94D0
:100450000A0260E08CE30E946D0380E40E94A40322
:10046000C4E2D1E089910E94A40385E0C432D80798
:10047000C9F7DF91CF910C940803E4E2F1E0119207
:1004800085E0E432F807D9F70C942502CF92DF9289
:10049000FF920F931F93CF93DF939C01862F67FDED
:1004A00051C0403408F04EC0483020F04695469583
:1004B000469501C040E066E00E94DF034F5F50E0D8
:1004C000415051095695542F442757954795982FD9
:1004D000990F890F880F6A01C80ED11CC601F90156
:1004E0008F01021B130B41914111FACF70E060E0C4
:1004F00046E0F42EA72FB0E0A017B10728F5EC01D5
:10050000CC5DDE4F40E050E0A20FB31FEC916A01DA
:10051000FE9EC00CD11C1124F601E859FF4FE49156
:10052000E9934F5F5F4F4630510581F7AC014A5F59
:100530005F4F6F5F653119F44E5F5F4F60E07F5F23
:10054000CA01D8CF8AE001C081E0DF91CF911F912D
:100550000F91FF90DF90CF9008951F920F920FB6EA
:100560000F9211248F938091B900807629F08091A9
:10057000BC0080688093BC008091B90087FF0CC0EC
:100580008091BB0080932B0581E080932A058091A8
:10059000BC0080688093BC008091B900887A61F0CB
:1005A000809129058093BB0081E08093280580918C
:1005B000BC0080688093BC008091B900887B61F0AA
:1005C000809129058093BB0081E08093280580916C
:1005D000BC0080688093BC008091B9008C7049F0A9
:1005E00010922905109228058091BC0080688093A4
:1005F000BC008F910F900FBE0F901F9018958093A5
:10060000B9006093B80084E08093BC000C94C803E8
:1006100084E98093BC000E94D303909325058093C6
:1006200024058091BC0084FF13C00E94D3039093E3
:100630002705809326058091260590912705209116
:10064000240530912505821B930B8038924048F396
:10065000089584EA8093BC000E94D30390932505FB
:10066000809324058091BC0087FD13C00E94D303B2
:100670009093270580932605809126059091270564
:100680002091240530912505821B930B80389240E0
:1006900048F308958093BB0084E88093BC000E94D7
:1006A000D30390932505809324058091BC0087FD9A
:1006B00013C00E94D3039093270580932605809151
:1006C0002605909127052091240530912505821B50
:1006D000930B8038924048F30895CF93DF93D82F3F
:1006E000C62F0E942903C11109C08091B900887FDB
:1006F000883079F00E94080381E023C0C13049F4BA
:100700008091B900887F803121F00E94080382E047
:1007100018C08D2F880F8C2B0E944A03C11109C06D
:100720008091B900887F883159F00E94080383E0E6
:1007300008C0C13029F48091B900887F8034A9F7BE
:1007400080E0DF91CF9108950E944A038091B90023
:10075000887F883221F00E94080384E0089580E0B9
:1007600008951F920F920FB60F9211248F939F93AB
:1007700080912C0590912D05019690932D058093E5
:100780002C059F918F910F900FBE0F901F90189581
:1007900082E084BD93E095BD80936E0081E087BDCB
:1007A000789416BC0895F89480912C0590912D05AD
:1007B000789423E0880F991F2A95E1F70895991BF3
:1007C00079E004C0991F961708F0961B881F7A9548
:0A07D000C9F780950895F894FFCF53
:1007DA0048656C6C6F20776F726C642120486F7764
:1007EA002061726520796F753F00436F756E74657D
:0407FA00723A20002F
:00000001FF
