S010000049324320546573742E7372656396
S11300000C9434000C9451000C9451000C94510045
S11300100C9451000C9451000C9451000C94510018
S11300200C9451000C9451000C9451000C94510008
S11300300C9451000C9451000C9451000C945100F8
S11300400C9451000C9451000C9454030C948002B1
S11300500C9451000C9451000C9451000C945100D8
S11300600C9465000C94510011241FBECFEFD8E00E
S1130070DEBFCDBF12E0A0E0B1E0E2E1F9E002C0F2
S113008005900D92A635B107D9F722E0A6E5B2E0B6
S113009001C01D92A236B207E1F70E9453000C94EE
S11300A087040C94000020E040E066E08FEC90E0D0
S11300B00E9497016CE081E00E94BB008EE891E011
S11300C00E940C030E940104FFCF1F920F920FB6EF
S11300D00F9211248F93EF93FF938091B900807650
S11300E029F0ECEBF0E08081806880838091B90096
S11300F0882364F48091BB0080935D0281E0809347
S11301005C02ECEBF0E08081806880838091B90030
S1130110887A61F080915B028093BB0081E08093D8
S11301205A02ECEBF0E08081806880838091B90012
S1130130887B61F080915B028093BB0081E08093B7
S11301405A02ECEBF0E08081806880838091B900F2
S11301508C7049F010925B0210925A02ECEBF0E0C2
S1130160808180688083FF91EF918F910F900FBE03
S11301700F901F9018958093B9006093B80084E0A5
S11301808093BC00089584E98093BC0028C08091CA
S1130190560290915702A0915802B09159020196CB
S11301A0A11DB11D8093560290935702A09358024B
S11301B0B09359028091560290915702A09158022F
S11301C0B09159020097A441B10548F0109256022B
S11301D01092570210925802109259020895809179
S11301E0BC0084FDD4CF089584EA8093BC0028C069
S11301F08091560290915702A0915802B0915902F1
S11302000196A11DB11D8093560290935702A093AD
S11302105802B09359028091560290915702A091CE
S11302205802B09159020097A441B10548F01092C8
S113023056021092570210925802109259020895D1
S11302408091BC008823A4F608958093BB0084E8C1
S11302508093BC0028C08091560290915702A091CF
S11302605802B09159020196A11DB11D8093560206
S113027090935702A0935802B0935902809156026A
S113028090915702A0915802B09159020097A4414D
S1130290B10548F01092560210925702109258027B
S11302A01092590208958091BC008823A4F6089501
S11302B08091B900887F0895CF93DF93D82FC62FFC
S11302C00E94F400C11108C00E945801883021F036
S11302D00E94C30081E028C0C13041F40E9458014B
S11302E0803121F00E94C30082E01EC08D2F90E077
S11302F0880F991F8C2B0E942501C11108C00E94F0
S11303005801883121F00E94C30083E00DC0C13040
S113031041F40E945801803431F00E94C30083E00C
S113032003C080E001C080E0DF91CF910895F8948C
S1130330E0ECF0E0308132603083E1ECF0E03081D9
S113034038613083308130683083E2ECF0E0308112
S1130350242B232B20838093C4009093C500623008
S113036071F018F4662331F01CC0643071F066300B
S113037091F017C0E2ECF0E08081808317C0E2ECDA
S1130380F0E080818260808311C0E2ECF0E0808143
S1130390846080830BC0E2ECF0E08081866080831F
S11303A005C0E2ECF0E08081866080837894089553
S11303B081111EC0E9E0F1E0828190E02381348163
S11303C082179307A9F1A081B0E0A75FBE4F1596ED
S11303D06C9380818F5F808382818F5F8283808131
S11303E090E02817390731F51092090181E008954A
S11303F0813011F5E0E0F1E0828190E023813481E5
S113040082179307D9F0A081B0E0A050BF4F159692
S11304106C9380818F5F808382818F5F82838081F0
S113042090E02817390761F41092000181E00895E3
S113043082E0089581E0089584E6089583E00895B4
S113044081E0089581111FC080910B018823E1F19F
S1130450E9E0F1E0A181B0E0A75FBE4F15968C9171
S1130460DB018C9381818F5F8183828181508283C0
S1130470818190E0238134818217930739F51092AA
S11304800A0181E00895813019F5809102018823E1
S113049009F1E0E0F1E0A181B0E0A050BF4F159672
S11304A08C91DB018C9381818F5F81838281815068
S11304B08283818190E0238134818217930761F4E0
S11304C01092010181E0089584E0089581E0089587
S11304D084E6089585E0089581E00895811106C0B9
S11304E080910B01882359F081E00895813031F423
S11304F080910201882319F081E0089584E608952B
S11305001F920F920FB60F9211242F933F934F9384
S11305105F936F937F938F939F93AF93BF93EF9367
S1130520FF93CF93DF931F92CDB7DEB780915E0226
S1130530813021F48BB184608BB903C08BB18B7F84
S11305408BB9198280E00E946E02882351F0BE01AB
S11305506F5F7F4F80E00E94220289818093C600F2
S113056005C0E1ECF0E080818F7D808380915E02A4
S1130570813021F48BB18B7F8BB903C08BB18B7F1E
S11305808BB90F90DF91CF91FF91EF91BF91AF9114
S11305909F918F917F916F915F914F913F912F9197
S11305A00F900FBE0F901F901895811106C0809177
S11305B00B01803851F481E00895813041F4809139
S11305C00201843031F481E0089580E0089584E6E6
S11305D0089580E008950F931F93CF93DF93EC0168
S11305E008C08E010F5F1F4F688180E00E94D80110
S11305F0E8018881882329F080E00E94D5028823BD
S113060081F3E1ECF0E080818062808381E0DF911E
S1130610CF911F910F9108950F931F93CF93DF9361
S1130620EC0108C08E010F5F1F4F688180E00E94BB
S1130630D801E8018881882329F080E00E94D5024E
S1130640882381F3C0E009C06DE080E00E94D801F6
S11306506AE080E00E94D801CF5FC11105C080E04C
S11306600E94D502882381F3E1ECF0E0808180626E
S1130670808381E0DF91CF911F910F910895909134
S1130680C000892F807194FD80E108959091C0008D
S1130690892F887093FD88E008959091C000892F78
S11306A0847092FD84E008951F920F920FB60F920A
S11306B011242F933F934F935F936F937F938F9363
S11306C09F93AF93BF93EF93FF9380915E0281302A
S11306D021F48BB188608BB903C08BB1877F8BB950
S11306E00E943F03882329F0809161028F5F8093E9
S11306F061020E944603882329F0809160028F5F83
S1130700809360020E944D03882329F080915F0248
S11307108F5F80935F0281E00E94D502811105C042
S11307206091C60081E00E94D80180915E02813010
S113073021F48BB1877F8BB903C08BB1877F8BB9D1
S1130740FF91EF91BF91AF919F918F917F916F91A5
S11307505F914F913F912F910F900FBE0F901F907B
S11307601895EF92FF920F931F93CF93DF9300D0CE
S113077000D01F92CDB7DEB77C018B01BE016F5F45
S11307807F4F85E0FB0111928A95E9F7F801118208
S1130790108240E1C7010E945204F0E1EF16F10417
S11307A0A0F4F80101900020E9F7319780E398E77D
S11307B09183808380E390E093838283BE016F5FA3
S11307C07F4FC8010E94470410C0F8010190002027
S11307D0E9F7319780E398E7918380831282BE0121
S11307E06F5F7F4FC8010E9447040F900F900F90D6
S11307F00F900F90DF91CF911F910F91FF90EF9089
S113080008951F93CF93DF9300D000D01F92CDB7EC
S1130810DEB784E991E00E940C038DEB91E00E9425
S11308200C0310E025C01123B1F060E0812F0E9479
S11308305C01811110C0BE016F5F7F4F812F90E07A
S11308400E94B10386ED91E00E94EB02CE01019675
S11308500E940C030CC011110AC060E0812F0E9499
S11308605C01811104C080E092E00E940C031F5FD0
S11308701123CCF68CE392E00E940C030F900F90AE
S11308800F900F900F90DF91CF911F910895FB016E
S1130890DC010D900020E9F7119701900D920020E2
S11308A0E1F70895BB274A3031F4992322F4BDE2DD
S11308B0909581959F4F0C945E04BB27FB015527AF
S11308C0AA27880F991FAA1FA41710F0A41B8395A9
S11308D05051B9F7A05DAA3308F0A95DA193009720
S11308E079F7B111B1931192CB010C947704DC0127
S11308F0FC01672F71917723E1F7329704C07C9153
S11309006D9370836291AE17BF07C8F30895F8948E
S1050910FFCF13
S1130912000000040000000000000000800000004D
S113092200000000000000000000000000000000C1
S113093200000000000000000000000000000000B1
S113094200000000000000000000000000000000A1
S11309520000000000000000000000000000000091
S11309620000000000000000000000000000000081
S11309720000000000000000000000000000000071
S11309820000000000000000000000000000000061
S11309920000000000000000000000000000496E9A
S11309A269743E005B6932637363616E5D5B4255D9
S11309B2532068616E6775702070726F746563741A
S11309C2696F6E20656E61626C65645D005B69329D
S11309D2637363616E5D5B5374617274696E6720E5
S11309E27363616E5D005B6932637363616E5D5B49
S11309F244657669636520726573706F6E646564BD
S1130A0220617420616464726573735D203A20000E
S1130A125B6932637363616E5D5B446576696365CA
S1130A2228732920726573706F6E64656420746F15
S1130A322067656E6572616C2063616C6C20616411
S1130A42647265737320307830305D005B693263A1
S1130A527363616E5D5B5363616E20636F6D706C73
S1090A626574655D0000EF
S9030000FC
