S00D000044485431312E73726563D5
S11300000C94B1000C94CE000C94CE000C94CE0051
S11300100C94CE000C94CE000C94CE000C94CE0024
S11300200C94CE000C94CE000C94CE000C94CE0014
S11300300C94CE000C94CE000C94CE000C94CE0004
S11300400C94CE000C94CE000C94BB040C94CE0003
S11300500C94CE000C94CE000C94CE000C94CE00E4
S11300600C94CE000C94CE0000407A10F35A00A0F9
S1130070724E18090010A5D4E80000E8764817006D
S113008000E40B54020000CA9A3B000000E1F505AD
S1130090000080969800000040420F000000A086F7
S11300A001000000102700000000E8030000000029
S11300B06400000000000A000000000001000000CD
S11300C000002C76D888DC674F0823DFC1DFAE59E7
S11300D0E1B1B796E5E3E453C63AE651997696E87A
S11300E0E6C28426EB898C9B62ED407C6FFCEFBCFE
S11300F09C9F40F2BAA56FA5F490055A2AF75C9329
S11301006B6CF9676DC11BFCE0E40D47FEF520E65E
S1130110B500D0ED902E0300943577050080841E41
S1130120080000204E0A000000C80C333333330F9C
S1130130986E12831141EF8D2114893BE65516CF39
S1130140FEE6DB18D1844B381BF77C1D901DA4BB45
S1130150E424203284725E228100C9F124ECA1E5FA
S11301603D2711241FBECFEFD8E0DEBFCDBF11E085
S1130170A0E0B1E0E0E5F5E102C005900D92AC33FA
S1130180B107D9F721E0ACE3B1E001C01D92A2347C
S1130190B207E1F70E9438040C94A60A0C940000FC
S11301A0DC01579A5F9A8FE39CE90197F1F700C04D
S11301B000005F989FEF29EF80E09150204080403D
S11301C0E1F700C000005F9A57989AEF07C025E056
S11301D02A95F1F70000915009F458C04F99F7CFD0
S11301E09AEF07C085E08A95F1F70000915009F471
S11301F04DC04F9BF7CF9AEF07C025E02A95F1F742
S11302000000915009F442C04F99F7CFFD01AD01B0
S11302104B5F5F4F28E09AEF06C085E08A95F1F7BF
S11302200000915099F14F9BF8CF90EA9A95F1F71D
S11302304F992EC09081990F90839AEF06C085E064
S11302408A95F1F70000915009F14F99F8CF2150A8
S113025011F73196E417F507E9F68C9111962C9174
S1130260119730E0280F311D12968C911297280FA8
S1130270311D13968C911397280F311D14964C91B0
S113028050E081E02417350741F0089581E0089596
S11302908081880F81608083D0CF80E00895CF92E1
S11302A0DF92EF92FF92CF93DF93EC01688170E0CD
S11302B080E090E00E947F0620E030E040E251E4DC
S11302C00E9436076B017C018981682F70E080E011
S11302D090E00E947F069B01AC01C701B6010E9419
S11302E0660520E030E040E251E40E94D705DF914A
S11302F0CF91FF90EF90DF90CF9008958F929F92CF
S1130300AF92BF92CF92DF92EF92FF921F93CF935F
S1130310DF93182FEB016A8170E080E090E00E9487
S11303207F066B017C014B81642F70E080E090E0DC
S11303300E947F064B015C0120E030E040E251E482
S1130340C701B6011A3051F10E943607A501940184
S11303500E94660520E030E044EB52E40E94360738
S113036020E030E048E452E40E94D70520E030E089
S113037040EA53E40E94660520E030E040E251E4A4
S11303800E94D705DF91CF911F91FF90EF90DF90EE
S1130390CF90BF90AF909F908F9008950E943607A2
S11303A0A50194010E94660520E030E040E251E49A
S11303B00E94D705E7CF4F925F926F927F928F9200
S11303C09F92AF92BF92CF92DF92EF92FF921F93D0
S11303D0CF93DF93CDB7DEB728970FB6F894DEBF7F
S11303E00FBECDBF182F3B01FB01638170E080E09D
S11303F090E00E947F066B017C01F3018281682FEB
S113040070E080E090E00E947F0620E030E040E26F
S113041051E40E9436079B01AC01C701B6010E945A
S1130420660520E030E044EB52E40E94360720E009
S113043030E048E452E40E94D70520E030E040EA8E
S113044053E40E94660520E030E040E251E40E945B
S1130450D7056B017C01F301618170E080E090E0DD
S11304600E947F064B015C01F3018081682F70E0DC
S113047080E090E00E947F0620E030E040E251E41A
S11304800E9436079B01AC01C501B4010E946605B8
S113049020E030E040E251E40E94D7054B015C01CA
S11304A020E030E044E752E4C701B6010E9466054B
S11304B02B013C0120E030E048E852E4C701B601DA
S11304C00E9465052AE939E949E95FE30E94360794
S11304D09B01AC01C301B2010E9466052B013C01E2
S11304E022E133E840EC5DE3C501B4010E94360724
S11304F09B01AC01C301B2010E94660520E030E01B
S113050040E05FE30E9436072B013C0120E030E02D
S11305104EE952E40E94310718160CF019C1A701E4
S11305209601C701B6010E9436072B013C01A501C3
S11305309401C501B4010E9436076D837E838F83C5
S1130540988721E133E243E050E4C701B6010E94F9
S1130550360729E134E849E252E40E9465056983DB
S11305607A838B839C8326E13BE442E251E4C50118
S1130570B4010E9436079B01AC0169817A818B81A9
S11305809C810E94660569837A838B839C8328E41B
S113059036E246E65EEBC701B6010E943607A501C6
S11305A094010E9436079B01AC0169817A818B8199
S11305B09C810E94660569837A838B839C8320EEE9
S11305C03FE040EE5BEBC301B2010E9436079B01A2
S11305D0AC0169817A818B819C810E946605698363
S11305E07A838B839C8328EF37E840E65DEB6D814B
S11305F07E818F8198850E9436079B01AC016981B9
S11306007A818B819C810E94660569837A838B83BE
S11306109C832CEA3DE041EA5AE3C301B2010E9403
S11306203607A50194010E9436079B01AC0169813C
S11306307A818B819C810E94660569837A838B838E
S11306409C8328EC3FE84FE55AE3C701B6010E94BA
S113065036072D813E814F8158850E9436079B01C4
S1130660AC0169817A818B819C810E9466056983D2
S11306707A838B839C8321EF3BE845E056EBC301EF
S1130680B2010E9436072D813E814F8158850E9418
S113069036079B01AC0169817A818B819C810E9420
S11306A066052B013C0120E030E040E551E4C50142
S11306B0B4010E94D20587FD75C020E030E04AEA0B
S11306C052E4C501B4010E94310718160CF040C071
S11306D020E030E040EA52E4C701B6010E9431074D
S11306E087FD36C020E030E04EEA52E4C701B6018F
S11306F00E94D205181664F120E030E04AEA52E480
S1130700C501B4010E9465052DEC3CEC4CEC5DE3A5
S11307100E9436074B015C01A701960160E070E07E
S11307208EEA92E40E9465052DEC3CEC4CE45EE319
S11307300E9436079B01AC01C501B4010E94360733
S11307409B01AC01C301B2010E9466052B013C016F
S11307501A3081F420E030E040E052E4C301B201F9
S11307600E94650526E838E34EE05FE30E94360701
S11307702B013C01C301B20128960FB6F894DEBFE9
S11307800FBECDBFDF91CF911F91FF90EF90DF900F
S1130790CF90BF90AF909F908F907F906F905F901D
S11307A04F90089520E030E040EA52E4C701B601DA
S11307B00E94310787FD81CF20E030E040EE52E413
S11307C0C701B6010E94D20518160CF440C020E0FF
S11307D030E04EEB52E4C701B6010E9465050E9469
S11307E049069B0177FD3FC0B901330F880B990B74
S11307F00E9481069B01AC0160E070E088E891E40E
S11308000E9465052EE33DEE40E75DE30E94360756
S11308100E94A9076B017C01A501940160E070E0CE
S113082080E591E40E94650520E030E040E85EE365
S11308300E943607A70196010E9436079B01AC016E
S1130840C301B2010E9465052B013C0181CF20E068
S113085030E04AEA52E4C501B4010E943107181697
S11308600CF440CF75CF22273327261B370BBCCF80
S1130870CF93DF93CDB7DEB72B970FB6F894DEBFD7
S11308800FBECDBF80E895E20E94D3042FEF84E32E
S11308909CE0215080409040E1F700C000002FEF21
S11308A084E39CE0215080409040E1F700C00000C8
S11308B02FEF84E39CE0215080409040E1F700C09A
S11308C000002FEF84E39CE0215080409040E1F74A
S11308D000C000002FEF84E39CE021508040904052
S11308E0E1F700C000002FEF84E39CE0215080403A
S11308F09040E1F700C00000CE0107960E94D000AE
S1130900813021F280E091E00E941305CE01079628
S11309100E944F018E010F5F1F4F21E043E00E94B0
S11309202008C8010E9413058BE091E00E94130582
S1130930BE01695F7F4F8AE00E947E0121E043E0AF
S11309400E942008C8010E9413058AE191E00E94D8
S11309501305BE01695F7F4F8AE00E94DB0121E03D
S113096043E00E942008C8010E942A0582E391E026
S11309700E942A058BCF1F920F920FB60F9211245B
S11309808F9380913D01813061F05A988091C60027
S113099080933C015A988F910F900FBE0F901F9037
S11309A018955A9AF3CFA0E0B0E0880F991FAA1FB8
S11309B0BB1F880F991FAA1FBB1F9C01AD01220FEB
S11309C0331F441F551F220F331F441F551F60E060
S11309D074E284EF90E00E94FE07DA01C9010197F6
S11309E0A109B10980933E0190933F01A093400176
S11309F0B09341011092C50080913E018093C400E0
S1130A00E0ECF0E080811082E1ECF0E0808188612C
S1130A108083A2ECB0E08C9186608C9380818068A6
S1130A20808378940895FC012081222381F03196FB
S1130A3080913D01813061F05B989091C00095FFF9
S1130A40FCCF2093C6005B9821912111F1CF08952A
S1130A505B9AF3CFFC012081222389F0FC013196BB
S1130A6080913D01813051F15B989091C00095FFD8
S1130A70FCCF2093C6005B9821912111F1CF809186
S1130A803D018130E9F05B988091C00085FFFCCF87
S1130A908DE08093C6005B9880913D01813091F098
S1130AA05B988091C00085FFFCCF8AE08093C600EC
S1130AB080913D015B98813039F008955B9AD5CFE0
S1130AC05B9AE2CF5B9AEDCF08955058BB27AA27D3
S1130AD00E947D050C94F7060E94E90638F00E94F6
S1130AE0F00620F039F49F3F19F426F40C94E6063E
S1130AF00EF4E095E7FB0C94E006E92F0E9408074A
S1130B0058F3BA17620773078407950720F079F43E
S1130B10A6F50C942A070EF4E0950B2EBA2FA02DFF
S1130B200B01B90190010C01CA01A0011124FF2796
S1130B30591B99F0593F50F4503E68F11A16F04091
S1130B40A22F232F342F4427585FF3CF4695379590
S1130B502795A795F0405395C9F77EF41F16BA0B55
S1130B60620B730B840BBAF09150A1F0FF0FBB1F03
S1130B70661F771F881FC2F70EC0BA0F621F731F4C
S1130B80841F48F4879577956795B795F7959E3FA9
S1130B9008F0B0CF9395880F08F09927EE0F97953A
S1130BA0879508950E94BC0608F481E008950E9488
S1130BB0EB050C94F7060E94F00658F00E94E90633
S1130BC040F029F45F3F29F00C94E00651110C9495
S1130BD02B070C94E6060E94080768F39923B1F3E7
S1130BE0552391F3951B550BBB27AA27621773074F
S1130BF0840738F09F5F5F4F220F331F441FAA1FE3
S1130C00A9F335D00E2E3AF0E0E832D0915050409E
S1130C10E695001CCAF72BD0FE2F29D0660F771F4C
S1130C20881FBB1F261737074807AB07B0E809F032
S1130C30BB0B802DBF01FF2793585F4F3AF09E3FB7
S1130C40510578F00C94E0060C942B075F3FE4F315
S1130C50983ED4F3869577956795B795F7959F5FFA
S1130C60C9F7880F911D9695879597F90895E1E046
S1130C70660F771F881FBB1F621773078407BA07A5
S1130C8020F0621B730B840BBA0BEE1F88F7E09500
S1130C9008950E9450066894B1110C942B0708958E
S1130CA00E94100788F09F5798F0B92F9927B751E1
S1130CB0B0F0E1F0660F771F881F991F1AF0BA95FC
S1130CC0C9F714C0B13091F00E942A07B1E0089529
S1130CD00C942A07672F782F8827B85F39F0B93F1B
S1130CE0CCF3869577956795B395D9F73EF49095AF
S1130CF08095709561957F4F8F4F9F4F0895E8942D
S1130D0009C097FB3EF490958095709561957F4F4F
S1130D108F4F9F4F9923A9F0F92F96E9BB279395FD
S1130D20F695879577956795B795F111F8CFFAF40D
S1130D30BB0F11F460FF1BC06F5F7F4F8F4F9F4F3E
S1130D4016C0882311F096E911C0772321F09EE89C
S1130D50872F762F05C0662371F096E8862F70E002
S1130D6060E02AF09A95660F771F881FDAF7880FDC
S1130D709695879597F90895990F0008550FAA0B32
S1130D80E0E8FEEF16161706E807F907C0F012169A
S1130D901306E407F50798F0621B730B840B950B9D
S1130DA039F40A2661F0232B242B252B21F40895F2
S1130DB00A2609F4A140A6958FEF811D811D08958F
S1130DC097F99F6780E870E060E008959FEF80ECFA
S1130DD0089500240A94161617061806090608959D
S1130DE000240A9412161306140605060895092E03
S1130DF00394000C11F4882352F0BB0F40F4BF2B72
S1130E0011F460FF04C06F5F7F4F8F4F9F4F0895B1
S1130E1057FD9058440F551F59F05F3F71F04795A7
S1130E20880F97FB991F61F09F3F79F0879508958C
S1130E30121613061406551FF2CF4695F1DF08C0AB
S1130E40161617061806991FF1CF869571056105C8
S1130E5008940895E894BB2766277727CB0197F970
S1130E6008950E94BC0608F48FEF08950E94490774
S1130E700C94F7060E94E90638F00E94F00620F070
S1130E80952311F00C94E0060C94E60611240C94BE
S1130E902B070E94080770F3959FC1F3950F50E04C
S1130EA0551F629FF001729FBB27F00DB11D639F18
S1130EB0AA27F00DB11DAA1F649F6627B00DA11DBE
S1130EC0661F829F2227B00DA11D621F739FB00D64
S1130ED0A11D621F839FA00D611D221F749F3327D4
S1130EE0A00D611D231F849F600D211D822F762F6D
S1130EF06A2F11249F5750409AF0F1F088234AF04A
S1130F00EE0FFF1FBB1F661F771F881F91505040B5
S1130F10A9F79E3F510580F00C94E0060C942B0732
S1130F205F3FE4F3983ED4F3869577956795B7953C
S1130F30F795E7959F5FC1F7FE2B880F911D969556
S1130F40879597F9089519F416F40C94E6060C9411
S1130F50E9070E941007B8F39923C9F3B6F39F5722
S1130F60550B87FF0E94F7070024A0E640EA900192
S1130F7080585695979528F4805C660F771F881FD4
S1130F8020F026173707480730F4621B730B840BD5
S1130F90202931294A2BA695179407942025312519
S1130FA04A2758F7660F771F881F20F02617370740
S1130FB0480730F4620B730B840B200D311D411D67
S1130FC0A09581F7B901842F9158880F969587953C
S1130FD008959F3F31F0915020F487957795679558
S1130FE0B795880F911D9695879597F90895915017
S1130FF05040660F771F881FD2F70895A1E21A2E7A
S1131000AA1BBB1BFD010DC0AA1FBB1FEE1FFF1FA8
S1131010A217B307E407F50720F0A21BB30BE40BF8
S1131020F50B661F771F881F991F1A9469F760953F
S11310307095809590959B01AC01BD01CF010895F9
S1131040EF920F931F93CF93DF93E80147FD02C004
S113105034E001C034E1E42F440FFF0BF7FF03C079
S1131060F195E195F109E32E022F2E2FAE010E9496
S11310704008CE01DF91CF911F910F91EF90089519
S11310804F925F926F927F929F92AF92BF92CF9254
S1131090DF92EF92FF920F931F93CF93DF93CDB71D
S11310A0DEB729970FB6F894DEBF0FBECDBF6A0135
S11310B0122FB02E2BE3201720F0FF24F394F00E10
S11310C002C0BCE3FB2E0F2D27E0AE014F5F5F4F44
S11310D00E94CE09AC018981982F9970913031F02A
S11310E0E1FC06C0E0FE06C090E205C09DE203C03C
S11310F09BE201C090E0EE2DE07183FF3CC09111B2
S113110002C083E001C084E0811718F4212F281B5A
S113111001C020E0E1110BC0F601822F30E28823E8
S113112019F031938150FBCFC20ED11C20E09923DA
S113113029F0D6019C93F60131966F01C6010396FE
S1131140E2FE0AC03EE4D6013C9341E411964C937E
S1131150119712963C9306C03EE6F601308341E6B1
S113116041833283FC01322F40E2332309F442C02D
S113117041933150FACF82FF44C0911102C083E001
S113118001C084E0811718F4212F281B01C020E03E
S1131190E1110BC0F601822F30E2882319F031935C
S11311A08150FBCFC20ED11C20E0992329F0D60137
S11311B09C93F60131966F01C6010396E2FE0BC0C3
S11311C039E4D6013C933EE411963C93119736E4FE
S11311D012963C9307C039E6F60130833EE631832C
S11311E036E63283FC01322F40E2332319F0419377
S11311F03150FBCFFC01E20FF11D10828EEF9FEF07
S1131200B7C0F1E0911101C0F0E06F2F70E0141647
S1131210150624F49A012F5F3F4F02C021E030E00D
S1131220260F371FBB2029F06B2D70E06F5F7F4FB7
S113123002C060E070E0260F371F612F70E02617B0
S113124037071CF4121B212F01C020E03E2D3871FA
S113125059F4D601322F60E2332319F06D933150E3
S1131260FBCFC20ED11C20E0FF2331F0D6019C93AA
S1131270B6016F5F7F4F6B01E1110BC0F601922F36
S113128030E3992319F031939150FBCFC20ED11C56
S113129020E09F2D940F3A81782F7071A72E84FF40
S11312A003C0313309F49150191624F4993018F01D
S11312B098E001C091E0E42F852F57FF02C0E0E0E1
S11312C080E06E2F782FE0E0F0E0AEE29A2E3A0153
S11312D0691A71082A01461A570A0B2D10E0119554
S11312E0019511096F3F8FEF780729F4D6019C927D
S11312F0C60101966C014617570784F066167706F7
S11313006CF47F01E40CF51CA1E0B0E0AC0FBD1F50
S1131310EA0EFB1ED7011196BC9002C090E3B92ED1
S1131320615071093196C60101967C0160177107FD
S113133024F0D601BC926C01D5CF6417750741F433
S1131340363320F4353321F4A11002C081E3B82EE2
S1131350F601B082F701822F90E2882319F091936D
S11313608150FBCFF701E20FF11D108280E090E085
S113137029960FB6F894DEBF0FBECDBFDF91CF9193
S11313801F910F91FF90EF90DF90CF90BF90AF909F
S11313909F907F906F905F904F900895283008F051
S11313A027E03327DA01990F311D87FD91600096FC
S11313B06105710539F432602E5F3D9330E32A955F
S11313C0E1F708959F3F30F080387105610509F019
S11313D03C5F3C5F3D93913008F08068911DDF9342
S11313E0CF931F930F93FF92EF92192F987F9695A7
S11313F0E92F96959695E90FFF27EE53FF4F99270E
S11314003327EE24FF24A701E701059008940794ED
S113141028F4360FE71EF81E491F511D660F771F6B
S1131420881F991F0694A1F70590079428F4E70EE6
S1131430F81E491F561FC11D770F881F991F661F6D
S11314400694A1F70590079428F4F80E491F561F37
S1131450C71FD11D880F991F661F771F0694A1F718
S11314600590079420F4490F561FC71FD81F990FE2
S1131470661F771F881F0694A9F78491109517702B
S113148041F0D695C79557954795F794E7941A95E3
S1131490C1F7E8E6F0E068941590159135916591EF
S11314A0959105907FE27395E118F10A430B560B71
S11314B0C90BD009C0F7E10CF11E431F561FC91F09
S11314C0D01D7EF4703311F48A95E6CFE894015070
S11314D030F0080F0AF40027021708F4202F239590
S11314E0022F7A3328F079E37D932A95E9F710C027
S11314F07D932A9589F60694979567953795179560
S11315001794E118F10A430B560BC90BD00998F054
S113151023957E9173957A3308F070E37C932013BE
S1131520B8F77E9170617D9330F0839571E37D937C
S113153070E32A95E1F71124EF90FF900F911F912A
S1131540CF91DF91992787FD90950895F894FFCF67
S113155048756D69646974793A20000954656D7041
S1131560657261747572653A20000948656174207A
S1131570496E6465783A200025642E25642025256B
S10F158020090025642E256420090000C9
S9030000FC
