:100000000C9434000C943E000C943E000C943E0082
:100010000C943E000C943E000C943E000C943E0068
:100020000C943E000C943E000C943E000C943E0058
:100030000C943E000C943E000C943E000C943E0048
:100040000C943E000C943E000C943E000C943E0038
:100050000C943E000C943E000C943E000C943E0028
:100060000C943E000C943E0011241FBECFEFD8E04C
:10007000DEBFCDBF0E9440000C9457000C940000DE
:100080000E9447000E944F000E945100FBCF519AEE
:1000900084B18FEF84B98BB18C6F8BB9089589B11E
:1000A000089583FD02C05F9A08955F980895F894BB
:0200B000FFCF80
:00000001FF
