:107000000C9434380C9449380C9449380C94493811
:107010000C9449380C9449380C9449380C944938EC
:107020000C9449380C9449380C9449380C944938DC
:107030000C9449380C9449380C9449380C944938CC
:107040000C9449380C9449380C9449380C944938BC
:107050000C9449380C9449380C9449380C944938AC
:107060000C9449380C94493811241FBECFEFD8E056
:10707000DEBFCDBF11E0A0E0B1E0E2EAF1E702C07F
:1070800005900D92A030B107D9F70E949C380C945E
:10709000CF380C940038CF92DF92EF92FF920F938B
:1070A0001F93CF93DF937C01082FF89483E0F701BF
:1070B00080935700E89507B600FCFDCF10E024C090
:1070C00060E070E0802F90E00E94B138C12CD12C9C
:1070D000F601C081D0E081E0800F60E070E090E0D8
:1070E0000E94B138F601808190E0982F8827C82B44
:1070F000D92B0E5FF701E10FF11D81E00E018093A6
:107100005700E89511241E5F1034D0F285E0F70196
:1071100080935700E89507B600FCFDCF81E180938E
:107120005700E8957894DF91CF911F910F91FF90D0
:10713000EF90DF90CF900895C12CD12C760108C03C
:10714000C6010E944B3880E8C80ED11CE11CF11C1E
:1071500081E0C816D806E104F10490F30C94000015
:10716000FFCF811524E09207C0F4F999FECF1FBA32
:10717000F8949C01082E02C0369527950A94E2F7F0
:1071800022BD81BD8FB381608FBBF899FECF80B5E2
:10719000FB018083789481E0089583E00895F8945A
:0271A000FFCF1F
:040000030000700089
:00000001FF
