S00E0000424D503238302E737265639D
S11300000C9434000C9451000C9451000C94510045
S11300100C9451000C9451000C9451000C94510018
S11300200C9451000C9451000C9451000C94510008
S11300300C9451000C9451000C944D020C945100FA
S11300400C9451000C9451000C9451000C945100E8
S11300500C9451000C9451000C9451000C945100D8
S11300600C941B010C94510011241FBECFEFD8E057
S1130070DEBFCDBF21E0A6E0B1E001C01D92A431F6
S1130080B207E1F711E0A0E0B1E0ECE3F7E002C071
S113009005900D92A630B107D9F70E940E010C9479
S11300A09C030C940000FF920F931F93CF93DF9354
S11300B0182FF62EC42FD22F60E086E70E94090283
S11300C084EF0E9440028F2D8C2B812B0E944002D2
S11300D085EF0E9440028D2F802B0E9440020E94D7
S11300E09801DF91CF911F910F91FF9008950F9385
S11300F003E024E040E464E183E00E9453000F91B4
S113010008951F93CF93DF93EC0160E086E70E948C
S1130110090288E80E94400261E086E70E94090221
S11301200E94B101182F0E94B101212F30E0382B19
S1130130398328830E94B101182F0E94B101212F15
S113014030E0382B3B832A830E94B101182F0E9490
S11301507601212F30E0382B3D832C830E94B1019E
S1130160182F0E94B101212F30E0382B3F832E83BA
S11301700E94B101182F0E94B101212F30E0382BC9
S1130180398728870E94B101182F0E94B101212FBD
S113019030E0382B3B872A870E94B101182F0E9438
S11301A0B101212F30E0382B3D872C870E94B1010B
S11301B0182F0E94B101212F30E0382B3F872E8762
S11301C00E94B101182F0E94B101212F30E0382B79
S11301D0398B288B0E94B101182F0E94B101212F65
S11301E030E0382B3B8B2A8B0E94B101182F0E94E0
S11301F0B101212F30E0382B3D8B2C8B0E94B101B3
S1130200182F0E947601212F30E0382B3F8B2E8B44
S11302100E949801DF91CF911F91089568E481E0D5
S11302200E946D010E94770088E190E00E947B02A9
S11302300E948100FFCF1F920F920FB60F921124DC
S11302408F938091B900807629F08091BC008068FA
S11302508093BC008091B90087FF0CC08091BB00E3
S113026080930D0181E080930C018091BC00806833
S11302708093BC008091B900887A61F080910B0171
S11302808093BB0081E080930A018091BC00806868
S11302908093BC008091B900887B61F080910B0150
S11302A08093BB0081E080930A018091BC00806848
S11302B08093BC008091B9008C7049F010920B01BE
S11302C010920A018091BC0080688093BC008F91D9
S11302D00F900FBE0F901F9018958093B9006093F4
S11302E0B80084E08093BC000C94640284E880939A
S11302F0BC000E946F0290930701809306018091D5
S1130300BC0087FD0BC0209106013091070180914C
S11303100801909109012817390789F78091B900DC
S1130320887F883519F48091BB00089586E008958C
S113033084E98093BC000E946F029093070180932C
S113034006018091BC0084FF0BC02091060130910E
S1130350070180910801909109012817390789F74D
S1130360089584EC8093BC000E946F02909307016F
S1130370809306018091BC0087FD0BC0209106018B
S113038030910701809108019091090128173907DC
S113039089F78091B900887F803521F00E94980107
S11303A085E008958091BB00089584EA8093BC00A1
S11303B00E946F0290930701809306018091BC0014
S11303C087FD0BC02091060130910701809108013F
S11303D0909109012817390789F708958093BB0084
S11303E084E88093BC000E946F029093070180937D
S11303F006018091BC0087FD0BC02091060130915D
S1130400070180910801909109012817390789F79C
S11304100895CF93DF93D82FC62F0E94D501C11121
S113042009C08091B900887F883079F00E949801D2
S113043081E023C0C13049F48091B900887F8031C4
S113044021F00E94980182E018C08D2F880F8C2B18
S11304500E94EE01C11109C08091B900887F8831E2
S113046059F00E94980183E008C0C13029F48091BA
S1130470B900887F8034A9F780E0DF91CF91089597
S11304800E94EE018091B900887F883221F00E9499
S1130490980184E0089580E008951F920F920FB6AA
S11304A00F9211248F939F9380910E0190910F01CD
S11304B0019690930F0180930E019F918F910F905D
S11304C00FBE0F901F90189582E084BD93E095BDF8
S11304D080936E0081E087BD789416BC0895F894EB
S11304E080910E0190910F01789423E0880F991F59
S11304F02A95E1F708950F931F93CF93DF938230EA
S1130500910510F482E090E0E0911201F091130162
S113051020E030E0A0E0B0E0309719F14081518153
S11305200281138148175907C8F08417950769F4A5
S1130530109731F012960C93129713961C9327C0C0
S1130540009312011093130122C02115310519F0F3
S11305504217530718F49A01BD01EF01DF01F801B6
S1130560DBCF21153105F9F0281B390B2430310577
S113057080F48A819B816115710521F0FB019383CD
S1130580828304C09093130180931201FE0132967A
S113059044C0FE01E20FF31F81939193225031096D
S11305A0398328833AC02091100130911101232B03
S11305B041F4209102013091030130931101209301
S11305C0100120910001309101012115310541F400
S11305D02DB73EB74091040150910501241B350B02
S11305E0E0911001F0911101E217F307A0F42E1B22
S11305F03F0B2817390778F0AC014E5F5F4F241783
S1130600350748F04E0F5F1F5093110140931001BE
S11306108193919302C0E0E0F0E0CF01DF91CF91AC
S11306201F910F910895CF93DF93009709F481C030
S1130630FC01329713821282A0911201B09113012E
S1130640109781F420813181820F931F2091100132
S1130650309111012817390751F5F0931101E093F6
S1130660100167C0ED0120E030E0CE17DF0740F451
S11306704A815B819E0141155105F1F0EA01F5CFF4
S1130680D383C28340815181840F951FC817D90732
S113069059F488819981840F951F029691838083F0
S11306A08A819B81938382832115310529F4F093F8
S11306B01301E09312013DC0E901FB83EA834991F0
S11306C05991C40FD51FEC17FD0761F48081918106
S11306D0840F951F0296E90199838883828193810F
S11306E09B838A83E0E0F0E012968D919C911397AE
S11306F0009719F0FD01DC01F7CF8D919C911197C2
S11307009D012E5F3F4F820F931F20911001309166
S113071011012817390769F4309729F4109213014D
S11307201092120102C013821282B0931101A0939D
S10F07301001DF91CF910895F894FFCFE1
S109073C0000140120007E
S9030000FC
