:100000000C9434000C943E000C943E000C943E0082
:100010000C943E000C943E000C943E000C943E0068
:100020000C943E000C943E000C943E000C943E0058
:100030000C943E000C943E000C943E000C943E0048
:100040000C943E000C943E000C943E000C943E0038
:100050000C943E000C943E000C943E000C943E0028
:100060000C943E000C943E0011241FBECFEFD8E04C
:10007000DEBFCDBF0E9440000C94A0000C94000095
:100080000E947A00FFCF90E2499FA0011124862BA5
:10009000482B40654CBD84B18C6284B90895FC0145
:1000A00040A121E030E002C0220F331F6A95E2F741
:1000B000242B20A30895FC0140A121E030E002C0E0
:1000C000220F331F6A95E2F7242B20A30895FC0129
:1000D00090A121E030E002C0220F331F6A95E2F7C1
:1000E0002095292320A308958EBD0DB407FEFDCFD2
:1000F0008EB5089540E060E081E00E94430062E038
:1001000084E090E00E944F0062E085E090E00E9471
:100110005B0062E085E090E00E94670081EA0E9457
:10012000740083E30E9474008BEB0E9474008CECDB
:100130000E94740062E085E090E00E945B000895F8
:04014000F894FFCF61
:00000001FF
