S0130000454550524F4D20546573742E7372656389
S11300000C9434000C9451000C9451000C94510045
S11300100C9451000C9451000C9451000C94510018
S11300200C9451000C9451000C9451000C94510008
S11300300C9451000C9451000C9451000C945100F8
S11300400C9451000C9451000C9431030C945D02F7
S11300500C9451000C9451000C9451000C945100D8
S11300600C9451000C94510011241FBECFEFD8E022
S1130070DEBFCDBF11E0A0E0B1E0E0EAF7E002C0EE
S113008005900D92A63DB107D9F721E0A6EDB1E0A8
S113009001C01D92AA3DB207E1F70E9453000C94DF
S11300A0CE030C940000CF93DF93CDB7DEB728972F
S11300B00FB6F894DEBF0FBECDBF88E0EEE8F1E0E6
S11300C0DE01119601900D928A95E1F720E040E05F
S11300D066E080E190E00E94740120E030E0AE012F
S11300E04C5F5F4F61E070E080E090E00E94F200BE
S11300F020E030E0AE014B5F5F4F61E070E082E0F2
S113010090E00E94F200FFCF811524E09207C0F432
S1130110F999FECF1FBAF8949C01082E02C03695B7
S113012027950A94E2F722BD81BD8FB381608FBB0E
S1130130F899FECF80B5FB018083789481E008951F
S113014083E00895EF92FF920F931F93CF93DF9371
S113015000D000D01F92CDB7DEB77C018B01BE0169
S11301606F5F7F4F85E0FB0111928A95E9F7F801F3
S11301701182108240E1C7010E949903F0E1EF1659
S1130180F104A0F4F80101900020E9F7319780E32D
S113019098E79183808380E390E093838283BE0118
S11301A06F5F7F4FC8010E948E0310C0F801019059
S11301B00020E9F7319780E398E7918380831282E6
S11301C0BE016F5F7F4FC8010E948E030F900F9096
S11301D00F900F900F90DF91CF911F910F91FF908F
S11301E0EF9008958F929F92AF92BF92CF92DF9239
S11301F0EF92FF920F931F93CF93DF93CDB7DEB7A8
S113020027970FB6F894DEBF0FBECDBF7C018B01DC
S11302106A01611544E0740708F04EC0E11484E0FB
S1130220F80608F04BC0CB018E0D9F1D8130944021
S113023008F046C0F9011182108287EB91E00E9418
S1130240E902A12CB12C2FC04701FFEF8F1A9F0A9E
S113025060E070E0C7010E94840080910000F60114
S1130260EA0DFB1D8083A114B10449F0C5018F7010
S11302709927892B21F486EB91E00E94E902809171
S11302800000BE016F5F7F4F90E00E94A200CE018C
S113029001960E94C80285EB91E00E94C8024FEFCC
S11302A0A41AB40A7401A016B10670F286EB91E0A8
S11302B00E94E90281E005C082E003C083E001C03E
S11302C082E027960FB6F894DEBF0FBECDBFDF9154
S11302D0CF911F910F91FF90EF90DF90CF90BF903F
S11302E0AF909F908F900895F894E0ECF0E0308107
S11302F032603083E1ECF0E030813861308330816A
S113030030683083E2ECF0E03081242B232B20830F
S11303108093C4009093C500623071F018F4662392
S113032031F01CC0643071F0663091F017C0E2EC1B
S1130330F0E08081808317C0E2ECF0E0808182608D
S1130340808311C0E2ECF0E08081846080830BC084
S1130350E2ECF0E080818660808305C0E2ECF0E0AE
S11303608081866080837894089581111EC0E9E0BD
S1130370F1E0828190E02381348182179307A9F10F
S1130380A081B0E0A75FBE4F15966C9380818F5F0C
S1130390808382818F5F8283808190E02817390770
S11303A031F51092090181E00895813011F5E0E002
S11303B0F1E0828190E02381348182179307D9F0A0
S11303C0A081B0E0A050BF4F15966C9380818F5FE1
S11303D0808382818F5F8283808190E02817390730
S11303E061F41092000181E0089582E0089581E0B3
S11303F0089584E6089583E0089581E008958111C5
S11304001FC080910B018823E1F1E9E0F1E0A181B3
S1130410B0E0A75FBE4F15968C91DB018C93818170
S11304208F5F8183828181508283818190E02381E7
S113043034818217930739F510920A0181E00895F7
S1130440813019F580910201882309F1E0E0F1E09F
S1130450A181B0E0A050BF4F15968C91DB018C9325
S113046081818F5F8183828181508283818190E049
S1130470238134818217930761F41092010181E092
S1130480089584E0089581E0089584E6089585E060
S1130490089581E00895811106C080910B0188239D
S11304A059F081E00895813031F48091020188236C
S11304B019F081E0089584E608951F920F920FB613
S11304C00F9211242F933F934F935F936F937F93D6
S11304D08F939F93AF93BF93EF93FF93CF93DF9348
S11304E01F92CDB7DEB78091D601813021F48BB154
S11304F084608BB903C08BB18B7F8BB9198280E088
S11305000E944B02882351F0BE016F5F7F4F80E051
S11305100E94FF0189818093C60005C0E1ECF0E0F0
S113052080818F7D80838091D601813021F48BB1CD
S11305308B7F8BB903C08BB18B7F8BB90F90DF910D
S1130540CF91FF91EF91BF91AF919F918F917F9147
S11305506F915F914F913F912F910F900FBE0F902C
S11305601F901895811106C080910B01803851F4B9
S113057081E00895813041F480910201843031F4A6
S113058081E0089580E0089584E6089580E0089568
S11305900F931F93CF93DF93EC0108C08E010F5F7D
S11305A01F4F688180E00E94B501E801888188239B
S11305B029F080E00E94B202882381F3E1ECF0E0AC
S11305C080818062808381E0DF91CF911F910F91C0
S11305D008950F931F93CF93DF93EC0108C08E010E
S11305E00F5F1F4F688180E00E94B501E801888198
S11305F0882329F080E00E94B202882381F3C0E0BE
S113060009C06DE080E00E94B5016AE080E00E94CC
S1130610B501CF5FC11105C080E00E94B2028823FA
S113062081F3E1ECF0E080818062808381E0DF91FE
S1130630CF911F910F9108959091C000892F8071DF
S113064094FD80E108959091C000892F887093FDF6
S113065088E008959091C000892F847092FD84E011
S113066008951F920F920FB60F9211242F933F9368
S11306704F935F936F937F938F939F93AF93BF93A6
S1130680EF93FF938091D601813021F48BB1886080
S11306908BB903C08BB1877F8BB90E941C0388235D
S11306A029F08091D9018F5F8093D9010E9423039F
S11306B0882329F08091D8018F5F8093D8010E940C
S11306C02A03882329F08091D7018F5F8093D70173
S11306D081E00E94B202811105C06091C60081E0F0
S11306E00E94B5018091D601813021F48BB1877FBE
S11306F08BB903C08BB1877F8BB9FF91EF91BF9109
S1130700AF919F918F917F916F915F914F913F91A5
S11307102F910F900FBE0F901F901895FB01DC01D5
S11307200D900020E9F7119701900D920020E1F758
S11307300895BB274A3031F4992322F4BDE2909501
S113074081959F4F0C94A503BB27FB015527AA272E
S1130750880F991FAA1FA41710F0A41B839550514A
S1130760B9F7A05DAA3308F0A95DA193009779F7C2
S1130770B111B1931192CB010C94BE03DC01FC01C5
S1130780672F71917723E1F7329704C07C916D93C1
S113079070836291AE17BF07C8F30895F894FFCF32
S11307A000000004000000000000000080000000C1
S11307B00000000000000000000000000000000035
S11307C00000000000000000000000000000000025
S11307D00000000000000000000000000000000015
S11307E00000000000000000000000000000000005
S11307F000000000000000000000000000000000F5
S113080000000000000000000000000000000000E4
S113081000000000000000000000000000000000D4
S113082000000000000000000000000000000010B4
S11308304423648649505B454550524F4D5D5B658A
S11308406570726F6D57726974655D5B5772697418
S1130850696E675D0020005B454550524F4D5D5BFE
S1130860656570726F6D526561645D5B526561644C
S1090870696E675D0000E3
S9030000FC
