S0150000496E746567726174696F6E20322E7372656339
S11300000C94C0010C94DD010C94DD010C94DD0111
S11300100C94DD010C94DD010C94DD010C94DD01E4
S11300200C94DD010C94DD010C94DD010C94DD01D4
S11300300C94DD010C94DD010C94DD010C94DD01C4
S11300400C94DD010C94DD010C94DD010C94DD01B4
S11300500C94DD010C946B020C94DD010C94DD0115
S11300600C94DD010C94DD01A83FD30040A0C0DA5C
S11300701281FFA4A6D5808D04AFD9F1DB20200026
S1130080000000000000FFFFFFFFFFFFFFFFFFFF76
S1130090FFFFFFFFFFFFFFFFFFFFFFFFFFFFFFFF6C
S11300A0FFFFFFFFFFFFFFFFFFFFFFFFFFFFFFFF5C
S11300B0FFFFFFFFFFFFFFFFFFFFFFFFFFFFFFFF4C
S11300C0FFFFFFFFFFFFFFFFFFFFFFFFFFFFFFFF3C
S11300D0FFFFFFFFFFFFFFFFFFFFFFFFFFFFFFFF2C
S11300E0FFFFFFFFFFFFFFFFFFFFFFFFFFFFFFFF1C
S11300F0FFFFFFFFFFFFFFFFFFFFFFFFFFFFFFFF0C
S1130100FFFFFFFFFFFFFFFFFFFFFFFFFFFFFFFFFB
S1130110FFFFFFFFFFFFFFFFFFFFFFFFFFFFFFFFEB
S1130120FFFFFFFFFFFFFFFFFFFFFFFFFFFFFFFFDB
S1130130FFFFFFFFFFFFFFFFFFFFFFFFFFFFFFFFCB
S11301400000000000000000002F00000000070075
S1130150070000147F147F1400242A7F2A120062EF
S1130160640813230036495522500000050300009B
S113017000001C224100000041221C000014083E23
S113018008140008083E0808000000A060000008E9
S1130190080808080000606000000020100804023D
S11301A0003E5149453E0000427F400000426151FB
S11301B04946002141454B31001814127F10002795
S11301C045454539003C4A49493000017109050358
S11301D000364949493600064949291E0000363689
S11301E000000000563600000008142241000014EC
S11301F014141414000041221408000201510906C9
S113020000324959513E007C1211127C007F494949
S11302104936003E41414122007F4141221C007F7A
S113022049494941007F09090901003E4149497A88
S1130230007F0808087F0000417F41000020404102
S11302403F01007F08142241007F40404040007F6E
S1130250020C027F007F0408107F003E4141413EB2
S1130260007F09090906003E4151215E007F0919FA
S113027029460046494949310001017F0101003FF7
S11302804040403F001F2040201F003F4038403F77
S113029000631408146300070870080700615149DB
S11302A0454300007F41410000552A552A5500006E
S11302B041417F00000402010204004040404040EC
S11302C0000001020400002054545478007F484484
S11302D0443800384444442000384444487F0038BB
S11302E05454541800087E0901020018A4A4A47CE4
S11302F0007F080404780000447D400000408084AE
S11303007D00007F102844000000417F4000007CF5
S113031004180478007C0804047800384444443801
S113032000FC242424180018242418FC007C08044D
S1130330040800485454542000043F444020003C26
S11303404040207C001C2040201C003C4030403CAD
S1130350004428102844001CA0A0A07C004464543D
S11303604C440000087741000000006300000000D6
S113037041770800000804080804AAAAAAAAAAAA9D
S113038011241FBECFEFD8E0DEBFCDBF11E0A0E047
S1130390B1E0E2E7FCE002C005900D92A233B107A0
S11303A0D9F725E0A2E3B1E001C01D92A733B2075B
S11303B0E1F70E94CB020C9437060C940000809362
S11303C0B9006093B80084E08093BC00089594EA77
S11303D09093BC009091BC0097FFFCCF61110EC0BC
S11303E09091B900987F983059F084E98093BC00CB
S11303F08091BC0084FDFCCF81E008956130F9F068
S1130400880F862B8093BB0084E88093BC00809186
S1130410BC0087FFFCCF61110EC08091B900887FBA
S1130420883159F084E98093BC008091BC0084FD3C
S1130430FCCF83E00895613081F080E008959091CD
S1130440B900987F9031E1F284E98093BC008091F7
S1130450BC0084FDFCCF82E008958091B900887FC0
S1130460803459F384E98093BC008091BC0084FDFE
S1130470FCCFDFCF8093BB0084E88093BC008091E5
S1130480BC0087FFFCCF8091B900887F883249F097
S113049084E98093BC008091BC0084FDFCCF84E09F
S11304A0089580E0089584E98093BC008091BC00A5
S11304B084FDFCCF0895EAE7F0E08FEA8083109290
S11304C07B0080E480937C008FEF80937E008081AA
S11304D08064808308951F920F920FB60F921124A7
S11304E02F938F939F938091320181111EC080912D
S11304F0780090E090933601809335012091790043
S11305008091350190913601922B9093360180931E
S11305103501809132018031D8F580913201809388
S11305203201809132018F5F1AC08091780090E08F
S113053090933401809333012091790080913301A9
S113054090913401922B9093340180933301109253
S11305503201809132018031C0F480913201809364
S1130560320180917C00807F80937C0080913201F5
S113057090917C00892B80937C009F918F912F9187
S11305800F900FBE0F901F90189510923201E9CF73
S113059010923201C6CFCF93DF93CDB7DEB7E49785
S11305A00FB6F894DEBF0FBECDBF68E481E00E94B1
S11305B0DF010E94B5030E94CD0340E060E080E0CB
S11305C091E00E9439040E9408040E945B0278941E
S11305D0E12C00E0F12C10E0A12CB12CDD24D3940B
S11305E0CC24C3945DC0F22E880F991FE1E0F0E0A3
S11305F0EC0FFD1FE80FF91FA788B08CBE01615DE9
S11306007F4FC5010E94070540E060E08CE091E067
S11306100E94390440E060E68CE191E00E943904D4
S113062040E060E6CE018F960E943904E016A1F006
S11306308E2D90E09C012F5F3F4F2A3031050CF046
S113064075C0E22E880F991FE1E0F0E0EC0FFD1F6A
S1130650E80FF91FA080B180BE01615D7F4FC50125
S11306600E94070540E260E082E291E00E943904C2
S113067040E260E68CE191E00E94390440E260E6E9
S1130680CE018F960E9439040E940804809135019E
S11306909091360196958795969587950E94F504D5
S11306A020913501309136018D2D49E04D1508F426
S11306B080E08F1581F0E12FF0E0EE0FFF1F41E0A5
S11306C050E04C0F5D1FE40FF51F308F278B182F60
S11306D0DD24D394D80E80913301909134019C2C65
S11306E059E05C1508F4912CE914E9F0E02FF0E0EE
S11306F0EE0FFF1F21E030E02C0F3D1FE20FF31F30
S113070091838083F116A1F0092DCC24C394C90CE4
S11307108F2D90E09C012F5F3F4F2A3031050CF460
S113072062CFF12C61CFF112F3CF68CFE12C8ACFE5
S1130730BE01615D7F4FC5010E94070540E060E096
S11307408CE091E00E94390440E060E68CE191E0A5
S11307500E94390440E060E6CE018F960E9439047D
S1130760092DCC24C394C90C63CFCF93DF9360E0ED
S11307708CE30E94E70180E00E943A02C8E6D0E0E0
S1130780FE0184910E943A022196F0E0C038DF070E
S1130790B9F7DF91CF910C945302CF93DF9380E0AC
S11307A094E0E7E3F1E0DF019C011D922150304029
S11307B0E1F760E08CE30E94E70180E00E943A02E6
S11307C081E20E943A0280E00E943A028FE70E948E
S11307D03A0282E20E943A0280E00E943A028FE3E7
S11307E00E943A020E94530260E08CE30E94E701F7
S11307F080E40E943A02C7E3D1E089910E943A0260
S113080035E0C733D307C9F7DF91CF910C94530276
S1130810CF93DF9360E08CE30E94E70180E00E94C5
S11308203A0281E20E943A0280E00E943A028FE793
S11308300E943A0282E20E943A0280E00E943A0256
S11308408FE30E943A020E94530260E08CE30E940C
S1130850E70180E40E943A02C7E3D1E089910E9453
S11308603A0285E0C733D807C9F7DF91CF910C94DA
S113087053020F931F93CF93DF9367FD02C040345D
S113088030F08AE0DF91CF911F910F9108954830A5
S113089008F4A8C04695469546954F5F50E04150F0
S11308A051095695542F4427579547952BEA629F33
S11308B0612D112466956695262F220F620F660F0F
S11308C0460F511DFC012081222309F485C0FC013F
S11308D0319660E070E06F5F7F4F21912111FBCF73
S11308E06115710509F478C0C0E0D0E000E010E0C3
S11308F009C04A5F5F4F0F5FC02FD0E0C617D7070C
S113090008F06AC0C80FD91F288130E0F901EE0F42
S1130910FF1FE20FF31FEE0FFF1FE058FF4FE4919C
S1130920DA01A95CBE4FEC93288130E0F901EE0FA7
S1130930FF1FE20FF31FEE0FFF1FEF57FF4FE4916E
S11309401196EC931197288130E0F901EE0FFF1F07
S1130950E20FF31FEE0FFF1FEE57FF4FE4911296C5
S1130960EC931297288130E0F901EE0FFF1FE20F9C
S1130970F31FEE0FFF1FED57FF4FE4911396EC9317
S11309801397288130E0F901EE0FFF1FE20FF31FE8
S1130990EE0FFF1FEC57FF4FE4911496EC9314975E
S11309A0288130E0F901EE0FFF1FE20FF31FEE0F75
S11309B0FF1FEB57FF4FE4911596EC931F5F153122
S11309C009F097CF485F5F4F10E00F5FC02FD0E072
S11309D0C617D70708F496CF81E0DF91CF911F9116
S11309E00F91089540E050E061CFCF93C82F60E0AD
S11309F08CE30E94E70180E00E943A0281E80E94B1
S1130A003A028C2F0E943A02CF910C9453022F92F7
S1130A103F924F925F926F927F928F929F92AF928A
S1130A20BF92CF92DF92EF92FF920F931F93CF93D7
S1130A30DF9300D0CDB7DEB76C013B012DB63EB6D7
S1130A4097FDD1C01A82198223015301E1E0F0E03D
S1130A50E12CF12C2AE030E01AE0812E912C01C027
S1130A607801C601BF010E940606CB01B4010E94B1
S1130A700606805DD5018D935D01CF01880F991F16
S1130A80EE0FFF1FEE0FFF1FEE0FFF1FE80FF91F02
S1130A90C601B9010E94060687010F5F1F4FC901F5
S1130AA0880F991F220F331F220F331F220F331F6A
S1130AB0280F391F161617069CF2E981FA81EF2BCD
S1130AC009F041C0F2E0EF0EF11C2DB73EB72E192C
S1130AD03F090FB6F8943EBF0FBE2DBF8DB79EB72A
S1130AE001967C01A801B3010E942E06F701E00FD4
S1130AF0F11F20E030E0A9018291D2018D932D01F4
S1130B002F5F3F4F20173107B1F7F301E40FF51FB3
S1130B1011820FB6F8943EBE0FBE2DBE0F900F90FB
S1130B20DF91CF911F910F91FF90EF90DF90CF90C5
S1130B30BF90AF909F908F907F906F905F904F90F9
S1130B403F902F900895C7010396ADB7BEB7A81B79
S1130B50B90B0FB6F894BEBF0FBEADBFEDB7FEB76D
S1130B6031966F01A801B301CF010E942E06023015
S1130B70110539F180E090E04DE2EC0CFD1C00978A
S1130B8071F4D3014C93F701808111968C9382E028
S1130B9090E0801791070CF0BCCF009791F3F3011C
S1130BA0E80FF91FD801A81BB90BAC0DBD1D2C9182
S1130BB020839C012F5F3F4F20173107E1F0C901CB
S1130BC0E8CF8DE2D3018C93F601EE0DFF1D8081F9
S1130BD011968C931197F601808112968C9312973B
S1130BE013961C9296CFD194C194D10821E030E0A1
S1130BF03A83298329CF809590950C0D1D1DD8012A
S1130C00A80FB91F8C918183128283CF97FB072E83
S1130C1016F4009407D077FD09D00E941A0607FC49
S1130C2005D03EF4909581959F4F089570956195F8
S1130C307F4F0895AA1BBB1B51E107C0AA1FBB1F0E
S1130C40A617B70710F0A61BB70B881F991F5A9554
S1130C50A9F780959095BC01CD010895FB01DC01B5
S1130C6002C001900D9241505040D8F70895F89475
S1050C70FFCFB0
S1130C724D61696E206C6F616465640053656E73C7
S1130C826F7220302056616C75653A002020202056
S1130C92200053656E736F7220312056616C756546
S1050CA23A0012
S9030000FC
