:100000000C9434000C9446000C9446000C9446006A
:100010000C9446000C9446000C9446000C94460048
:100020000C9446000C9446000C9446000C94460038
:100030000C9446000C9446000C9446000C94460028
:100040000C9446000C9446000C9446000C94460018
:100050000C9446000C9446000C9446000C94460008
:100060000C946B000C94460011241FBECFEFD8E017
:10007000DEBFCDBF21E0A0E0B1E001C01D92A43001
:10008000B207E1F70E9451000C9460010C9400004B
:1000900084B1806284B9089595B180E2892785B9D9
:1000A00008950E94480068E481E00E94C10060E079
:1000B00085E00E94DF008AE00E94230161E085E084
:1000C0000E94DF000E9436010E9448010E945801F0
:1000D0000E944C00ECCF1F920F920FB60F9211248A
:1000E0008F93EF93FF938091B900807629F0ECEB2A
:1000F000F0E08081806880838091B900882364F477
:100100008091BB008093030181E080930201ECEBBE
:10011000F0E08081806880838091B900887A61F006
:10012000809101018093BB0081E080930001ECEBA2
:10013000F0E08081806880838091B900887B61F0E5
:10014000809101018093BB0081E080930001ECEB82
:10015000F0E08081806880838091B9008C7049F0E4
:100160001092010110920001ECEBF0E080818068B8
:100170008083FF91EF918F910F900FBE0F901F9092
:1001800018958093B9006093B80084E08093BC0018
:10019000089584E98093BC008091BC0084FDFCCF6D
:1001A00008958093BB0084E88093BC008091BC00DC
:1001B0008823E4F708958091B900887F0895CF934C
:1001C000DF93D82FC62F84EA8093BC008091BC00B7
:1001D0008823E4F7C11108C00E94DB00883021F0B9
:1001E0000E94C90081E02CC0C13041F40E94DB00B4
:1001F000803121F00E94C90082E022C08D2F90E062
:10020000880F991F8C2B0E94D1008091BC008823FD
:10021000E4F7C11108C00E94DB00883121F00E9480
:10022000C90083E00DC0C13041F40E94DB0080347E
:1002300031F00E94C90083E003C080E001C080E08B
:10024000DF91CF9108958093BB0084E88093BC0038
:100250008091BC008823E4F70E94DB00883221F003
:100260000E94C90084E0089580E0089584EC8093A2
:10027000BC008091BC008823E4F70E94DB0080353D
:1002800021F00E94C90085E008958091BB00089587
:1002900084E88093BC008091BC008823E4F70E942E
:1002A000DB00883519F48091BB00089586E008953D
:1002B00084E98093BC008091BC0084FDFCCF08954C
:0402C000F894FFCFE0
:00000001FF
