:100000000C9434000C9451000C9451000C94510049
:100010000C9451000C9451000C9451000C9451001C
:100020000C9451000C9451000C9451000C9451000C
:100030000C9451000C9451000C9451000C945100FC
:100040000C9451000C9451000C944E020C94CE016F
:100050000C9451000C9451000C9451000C945100DC
:100060000C9451000C94510011241FBECFEFD8E026
:10007000DEBFCDBF11E0A0E0B1E0EAE5F5E002C0EF
:1000800005900D92AE38B107D9F721E0AEE8B1E0A6
:1000900001C01D92A73AB207E1F70E9453000C94E9
:1000A000AB020C94000040EC67E080E00E9472001C
:1000B00020E040E066E087E090E00E94E5008FEFFE
:1000C0000E94DF0086E00E948C008EE00E948C007F
:1000D0002FEF80E792E0215080409040E1F700C090
:1000E0000000F0CF40938F01811111C010928E015A
:1000F000ECE7F0E08081482B4083EAE7F0E0808184
:10010000682B60686083808180648083089581307B
:1001100011F480938E01089590917A0096FD46C067
:10012000E0919001F0E02091780030917900EE0F9D
:10013000FF1FEF56FE4F31832083909190019F5F08
:100140009093900190919001993011F41092900148
:1001500090919001963040F420918F019091900100
:10016000922B90937C001DC0909190019630C8F026
:1001700090919001973051F0983071F0963089F459
:1001800090918F01986090937C000BC090918F01AB
:100190009E6090937C0005C090918F019F6090932A
:1001A0007C00EAE7F0E0908190649083E82FF0E033
:1001B000EE0FFF1FEF56FE4F808191810895EEE70D
:1001C000F0E09081892B80830895F894E0ECF0E0D2
:1001D000308132603083E1ECF0E03081386130838F
:1001E000308130683083E2ECF0E03081242B232B27
:1001F00020838093C4009093C500623071F018F49E
:10020000662331F01CC0643071F0663091F017C085
:10021000E2ECF0E08081808317C0E2ECF0E08081C6
:100220008260808311C0E2ECF0E080818460808392
:100230000BC0E2ECF0E080818660808305C0E2ECD8
:10024000F0E08081866080837894089581111EC0DB
:10025000E9E0F1E0828190E0238134818217930705
:10026000A9F1A081B0E0A75FBE4F15966C93808185
:100270008F5F808382818F5F8283808190E02817E7
:10028000390731F51092090181E00895813011F5A7
:10029000E0E0F1E0828190E02381348182179307CE
:1002A000D9F0A081B0E0A050BF4F15966C9380812B
:1002B0008F5F808382818F5F8283808190E02817A7
:1002C000390761F41092000181E0089582E00895F9
:1002D00081E0089584E6089583E0089581E008951B
:1002E00081111FC080910B018823E1F1E9E0F1E069
:1002F000A181B0E0A75FBE4F15968C91DB018C9376
:1003000081818F5F8183828181508283818190E0AE
:10031000238134818217930739F510920A0181E015
:100320000895813019F580910201882309F1E0E0F8
:10033000F1E0A181B0E0A050BF4F15968C91DB0198
:100340008C9381818F5F81838281815082838181BF
:1003500090E0238134818217930761F410920101A8
:1003600081E0089584E0089581E0089584E6089589
:1003700085E0089581E00895811106C080910B0108
:10038000882359F081E00895813031F48091020191
:10039000882319F081E0089584E608951F920F9252
:1003A0000FB60F9211242F933F934F935F936F9348
:1003B0007F938F939F93AF93BF93EF93FF93CF93CD
:1003C000DF931F92CDB7DEB78091A301813021F476
:1003D0008BB184608BB903C08BB18B7F8BB91982D1
:1003E00080E00E94BC01882351F0BE016F5F7F4F07
:1003F00080E00E94700189818093C60005C0E1EC15
:10040000F0E080818F7D80838091A301813021F491
:100410008BB18B7F8BB903C08BB18B7F8BB90F9066
:10042000DF91CF91FF91EF91BF91AF919F918F910C
:100430007F916F915F914F913F912F910F900FBEE0
:100440000F901F901895811106C080910B01803884
:1004500051F481E00895813041F4809102018430AB
:1004600031F481E0089580E0089584E6089580E005
:1004700008959091C000892F807194FD80E10895C6
:100480009091C000892F887093FD88E00895909125
:10049000C000892F847092FD84E008951F920F920E
:1004A0000FB60F9211242F933F934F935F936F9347
:1004B0007F938F939F93AF93BF93EF93FF9380911D
:1004C000A301813021F48BB188608BB903C08BB15B
:1004D000877F8BB90E943902882329F08091A60179
:1004E0008F5F8093A6010E944002882329F08091AB
:1004F000A5018F5F8093A5010E944702882329F000
:100500008091A4018F5F8093A40181E00E94230267
:10051000811105C06091C60081E00E942601809192
:10052000A301813021F48BB1877F8BB903C08BB1DC
:10053000877F8BB9FF91EF91BF91AF919F918F9181
:100540007F916F915F914F913F912F910F900FBECF
:0A0550000F901F901895F894FFCF4C
:10055A00000000040000000000000000800000000D
:10056A000000000000000000000000000000000081
:10057A000000000000000000000000000000000071
:10058A000000000000000000000000000000000061
:10059A000000000000000000000000000000000051
:1005AA000000000000000000000000000000000041
:1005BA000000000000000000000000000000000031
:1005CA000000000000000000000000000000000021
:0E05DA00000000000000000000000000000013
:00000001FF
