S01B000053534431333036204C454420446973706C61792E737265636A
S11300000C94C0010C94DD010C94DD010C94DD0111
S11300100C94DD010C94DD010C94DD010C94DD01E4
S11300200C94DD010C94DD010C94DD010C94DD01D4
S11300300C94DD010C94DD010C94DD010C94DD01C4
S11300400C94DD010C94DD010C94DD010C94DD01B4
S11300500C94DD010C94DD010C94DD010C94DD01A4
S11300600C94DD010C94DD01000000000000FFFF92
S1130070FFFFFFFFFFFFFFFFFFFFFFFFFFFFFFFF8C
S1130080FFFFFFFFFFFFFFFFFFFFFFFFFFFFFFFF7C
S1130090FFFFFFFFFFFFFFFFFFFFFFFFFFFFFFFF6C
S11300A0FFFFFFFFFFFFFFFFFFFFFFFFFFFFFFFF5C
S11300B0FFFFFFFFFFFFFFFFFFFFFFFFFFFFFFFF4C
S11300C0FFFFFFFFFFFFFFFFFFFFFFFFFFFFFFFF3C
S11300D0FFFFFFFFFFFFFFFFFFFFFFFFFFFFFFFF2C
S11300E0FFFFFFFFFFFFFFFFFFFFFFFFFFFFFFFF1C
S11300F0FFFFFFFFFFFFFFFFFFFFFFFFFFFFFFFF0C
S1130100FFFFFFFFFFFFFFFFFFFFFFFFFFFFFFFFFB
S1130110FFFFFFFFFFFFFFFFFFFFFFFFFFFFFFFFEB
S1130120FFFFFFFFFFFFFFFF0000000000000000D3
S1130130002F000000000700070000147F147F1444
S113014000242A7F2A1200626408132300364955CA
S1130150225000000503000000001C2241000000A2
S113016041221C000014083E08140008083E080838
S1130170000000A060000008080808080000606093
S11301800000002010080402003E5149453E0000D2
S1130190427F4000004261514946002141454B31B4
S11301A0001814127F10002745454539003C4A4980
S11301B049300001710905030036494949360006F2
S11301C04949291E0000363600000000563600005A
S11301D000081422410000141414141400004122D5
S11301E0140800020151090600324959513E007CAD
S11301F01211127C007F49494936003E4141412297
S1130200007F4141221C007F49494941007F09097F
S11302100901003E4149497A007F0808087F00002F
S1130220417F4100002040413F01007F08142241EA
S1130230007F40404040007F020C027F007F0408A2
S1130240107F003E4141413E007F09090906003EFE
S11302504151215E007F0919294600464949493127
S11302600001017F0101003F4040403F001F20404A
S1130270201F003F4038403F006314081463000708
S11302800870080700615149454300007F4141005F
S113029000552A552A55000041417F0000040201FF
S11302A002040040404040400000010204000020DD
S11302B054545478007F484444380038444444201B
S11302C000384444487F00385454541800087E09C8
S11302D001020018A4A4A47C007F08040478000090
S11302E0447D4000004080847D00007F102844004D
S11302F00000417F4000007C04180478007C08045E
S1130300047800384444443800FC24242418001899
S1130310242418FC007C0804040800485454542085
S113032000043F444020003C4040207C001C20400E
S1130330201C003C4030403C004428102844001C51
S1130340A0A0A07C004464544C4400000877410001
S11303500000006300000000417708000008040862
S11303600804AAAAAAAAAAAAA83FD30040A0C0DA4D
S11303701281FFA4A6D5808D04AFD9F1DB20200023
S113038011241FBECFEFD8E0DEBFCDBF11E0A0E047
S1130390B1E0EEE5F6E002C005900D92A432B1079B
S11303A0D9F725E0A4E2B1E001C01D92A432B2075E
S11303B0E1F70E945E020C942D030C9400008093DC
S11303C0B9006093B80084E08093BC00089584E988
S11303D08093BC008091BC0084FDFCCF0895809381
S11303E0BB0084E88093BC008091BC0087FFFCCFF5
S11303F00895CF93DF931F92CDB7DEB794EA90931D
S1130400BC009091BC0097FFFCCF611109C0909192
S1130410B900987F983079F00E94E70181E024C008
S1130420613049F49091B900987F903121F00E9495
S1130430E70182E019C0880F862B69830E94EF01CF
S11304406981611109C08091B900887F883159F0B0
S11304500E94E70183E008C0613029F48091B9006B
S1130460887F8034A9F780E00F90DF91CF910895C1
S11304708093BB0084E88093BC008091BC0087FF1C
S1130480FCCF8091B900887F883221F00E94E70177
S113049084E0089580E0089584E98093BC0080910D
S11304A0BC0084FDFCCF08950E94B40240E060E0EB
S11304B080E091E00E94BD020C949C0268E481E01B
S11304C00E94DF010E9467020E945402FFCF1F9323
S11304D0CF93DF9360E08CE30E94F90180E00E94F7
S11304E03802C8E6D3E01C2F185EFE0184910E94F6
S11304F0380221961C13F9CFDF91CF911F910C94F0
S11305004C0260E08CE30E94F90180E00E94380212
S113051081E20E94380280E00E9438028FE70E9444
S1130520380282E20E94380280E00E9438028FE39F
S11305300E9438020C944C02CF93DF930E948102F4
S113054060E08CE30E94F90180E40E943802C4E276
S1130550D1E089910E94380285E0C432D807C9F7F6
S1130560DF91CF910C944C02E4E2F1E0119285E02A
S1130570E432F807D9F70C949C02EF92FF920F93A0
S11305801F93CF93DF93DC01862F67FD52C0403465
S113059008F04FC0483020F046954695469501C076
S11305A040E066E00E942103982F4F5F242F30E043
S11305B0215031093695322F222737952795880FF8
S11305C0980F990F290F311DFD01EF01CA1BDB0B99
S11305D081918111FACF70E060E086E0F82E472F18
S11305E050E04C175D0718F580E090E04A0F5B1F60
S11305F0FA01E080FC01FE9CE00DF11D1124E85994
S1130600FF4FE4908C01020F131F0C5D1E4FF80185
S1130610E08201968630910559F7C90106966F5F0D
S1130620653111F4029660E07F5F9C01D8CF81E0D0
S113063001C08AE0DF91CF911F910F91FF90EF905D
S11306400895991B79E004C0991F961708F0961B2A
S1110650881F7A95C9F780950895F894FFCF16
S113065E48656C6C6F20776F726C642120486F77DD
S113066E2061726520796F753F00436F756E7465F6
S107067E723A2000A8
S9030000FC
