S00F000050726F676D656D2E737265633E
S11300000C9434000C9451000C9451000C94510045
S11300100C9451000C9451000C9451000C94510018
S11300200C9451000C9451000C9451000C94510008
S11300300C9451000C9451000C9451000C945100F8
S11300400C9451000C9451000C9491000C945100A8
S11300500C9451000C9451000C9451000C945100D8
S11300600C9451000C94510011241FBECFEFD8E022
S1130070DEBFCDBF11E0A0E0B1E0E2E9F1E002C0F3
S113008005900D92A030B107D9F721E0A0E0B1E0CE
S113009001C01D92A334B207E1F70E9453000C94EF
S11300A0C7000C94000020E040E068E087E690E0A0
S11300B00E945B00FFCF9093C5008093C400E1ECE5
S11300C0F0E088E18083808180688083E2ECF0E066
S11300D08081282B422B4083808186608083E0ECE2
S11300E0F0E08081108210924101109242017894D4
S11300F00895FC01E05CFF4F308121E0230F2034A0
S113010008F020E0FC01EF5BFF4F4081241741F031
S1130110FC01E30FF11D6083FC01E05CFF4F2083D1
S113012008951F920F920FB60F9211242F933F93AD
S11301304F935F936F937F938F939F93AF93BF93EB
S1130140EF93FF9380910001813011F45A9A01C01A
S11301505A986091C60081E091E00E9479008091F4
S11301600001813011F45A9801C05A98FF91EF911F
S1130170BF91AF919F918F917F916F915F914F91BB
S11301803F912F910F900FBE0F901F901895F894E8
S1050190FFCF9B
S9030000FC
