:100000000C9434000C9451000C9451000C94510049
:100010000C9451000C94FA030C9451000C94510070
:100020000C9451000C9451000C9451000C9451000C
:100030000C9451000C9451000C9451000C945100FC
:100040000C9451000C9451000C94D2050C9477053B
:100050000C9451000C9451000C9451000C945100DC
:100060000C9451000C94510011241FBECFEFD8E026
:10007000DEBFCDBF14E0A0E0B1E0E4ECFCE002C0E4
:1000800005900D92A83AB107D9F724E0A8EAB4E0A8
:1000900001C01D92AA3BB207E1F70E9453000C94E5
:1000A00060060C94000020E040E068E087E090E00B
:1000B0000E94900440E060E083E00E94320462E02D
:1000C00084E090E00E943E0462E085E090E00E94BF
:1000D0004A040E94990060E087E00E94A70082EC39
:1000E00093E00E94080580E00E94DE0183FD19C0B4
:1000F0006894AA24A3F80F2EF0E0CF2EF1E0DF2EB3
:10010000F02D0F2EF3E0EF2EF02D00E020E030E098
:1001100048EE57E060E080E00E94370180E00E94F6
:10012000B9010E94050180FFDECF80E00E946B02D2
:10013000DACF62E085E090E00E94560480EC0E94F5
:10014000630462E085E090E00E944A0408951F93F2
:10015000CF93DF9300D01F92CDB7DEB7182F19824F
:100160001A821B8240E016C0242F30E0862F90E0D8
:10017000FC01EE0FFF1FE80FF91FE856FB4FE20FDF
:10018000F31F8081E1E0F0E0EC0FFD1FE20FF31FB1
:1001900080834F5F433040F362E085E090E00E944F
:1001A000560482E00E94630488E20E9463048B810B
:1001B0000E94630489E20E9463048A810E946304AE
:1001C00088E20E94630489810E94630462E085E002
:1001D00090E00E944A0462E085E090E00E945604AC
:1001E00082E00E9463048FE00E946304812F0E94DA
:1001F000630462E085E090E00E944A040F900F9053
:100200000F90DF91CF911F910895CF9362E085E029
:1002100090E00E94560483E00E9463048CE20E94F6
:10022000630480E00E946304C82F62E085E090E0F0
:100230000E944A048C2FCF910895CF93C82F62E07B
:1002400085E090E00E94560485E00E9463048CE201
:100250000E9463048C2F0E9463048C2F0E9463040D
:1002600062E085E090E00E944A04CF9108958F9269
:100270009F92AF92CF92DF92EF92FF920F931F93D4
:10028000CF93DF93C82F162F4A01D22FF32EF89465
:10029000811101C0C0E462E085E090E00E94560454
:1002A0008C2F0E946304111117C0C4019695879585
:1002B00096958795969587950E946304882D8295DB
:1002C000880F807E812B0E94630480E00E9463047B
:1002D00080E00E94630417C01830A9F4892D0E94A1
:1002E0006304882D880F880F880F982F907E882DA3
:1002F0008370892B812B0E9463048F2D0E946304DD
:100300008D2F0E946304802F8A290E946304C0E01D
:1003100009C086010F5F1F4FF60180810E946304B0
:10032000CF5F6801CA15A8F362E085E090E00E9403
:100330004A0462E085E090E00E94560485E00E9455
:10034000630483E00E9463048E2D0E94630462E0D4
:1003500085E090E00E944A047894DF91CF911F914C
:100360000F91FF90EF90DF90CF90AF909F908F9084
:100370000895CF93C82F813021F038F0823019F0E2
:1003800005C0C0E403C0C0E401C0C0E362E085E092
:1003900090E00E94560485E00E9463048C2F0E9426
:1003A000630488E00E94630488E00E94630462E0C2
:1003B00085E090E00E944A04CF910895CF93C82F22
:1003C000813021F038F0823019F005C0C0E403C05C
:1003D000C0E401C0C0E362E085E090E00E94560402
:1003E00083E00E9463048C2F0E94630480E00E94DB
:1003F0006304C82F62E085E090E00E944A048C2FDD
:10040000CF910895CF93C82F62E085E090E00E94DD
:10041000560483E00E9463048C2F0E94630480E0F2
:100420000E946304C82F62E085E090E00E944A04C5
:100430008C2FCF910895EF92FF920F931F93CF933C
:10044000DF9300D000D01F92CDB7DEB77C018B01C7
:10045000BE016F5F7F4F85E0FB0111928A95E9F73E
:10046000F8011182108240E1C7010E942B06F0E1E1
:10047000EF16F104A0F4F80101900020E9F731979C
:1004800080E398E79183808380E390E09383828385
:10049000BE016F5F7F4FC8010E94200610C0F801A7
:1004A00001900020E9F7319780E398E791838083FA
:1004B0001282BE016F5F7F4FC8010E9420060F901D
:1004C0000F900F900F900F90DF91CF911F910F9190
:1004D000FF90EF9008957F928F929F92AF92BF927C
:1004E000CF92DF92EF92FF920F931F93CF93DF9300
:1004F000CDB7DEB728970FB6F894DEBF0FBECDBFDD
:10050000F894E8E0F1E04481558126813781421773
:10051000530709F45AC1182FFE01319688E0DF0114
:100520001D928A95E9F7112319F0113039F00CC0AA
:1005300080E60E9402028870982E07C080E70E9421
:1005400002028870982E01C0912C80910801909130
:1005500009012FE0289FF001299FF00D1124E85F89
:10056000FE4F9586112319F0113039F00CC082E648
:100570000E9402028870882E07C082E70E94020251
:100580008870882E01C0812C80910801909109010A
:100590002FE0289FF001299FF00D1124E85FFE4F06
:1005A000848681E60E940202E82EF12CEE0CFF1CEC
:1005B000EE0CFF1CEE0CFF1C82E60E940202182FBC
:1005C00012951695177082E60E9402028370182B0E
:1005D000E12A83E60E940202C12CD82E84E60E9402
:1005E0000202C82A85E60E940202082F0F7010E05E
:1005F00086E612C0183090F4A12EB12C77247394A3
:10060000780E0E940202E1E0F0E0EC0FFD1FEA0D1F
:10061000FB1D80831F5F872D101760F3E8E0F1E07A
:10062000208131818FE0829FD001839FB00D112402
:10063000A85FBE4F1996FC92EE92189720813181E7
:10064000829FD001839FB00D1124A85FBE4F1B96DF
:10065000DC92CE921A9720813181829FF001839F94
:10066000F00D1124E85FFE4F068790E01CC0983023
:10067000E0F46091080170910901292F30E0E1E078
:10068000F0E0EC0FFD1FE20FF31F8081EFE0E69F2B
:10069000A001E79F500D1124485F5E4FFA01E20F61
:1006A000F31F87879F5F901710F3E8E0F1E08081E8
:1006B00091810196918380838481958101969583B0
:1006C000848320813181868197812817390721F41D
:1006D000109209011092080181E00E941D01789496
:1006E0008BE294E00E94F3046CEA74E0C7010E947C
:1006F0001B0281E594E00E94F3048CEA94E00E94DE
:10070000F3046CEA74E0C6010E941B0286E594E0E3
:100710000E94F3048CEA94E00E94F304811005C067
:100720008CE594E00E94F3040CC0B8E08B1205C085
:1007300085E694E00E94F30404C08EE694E00E94F3
:10074000F30488E0981205C085E794E00E94F30462
:100750000BC0911005C08DE794E00E94F30404C023
:1007600085E894E00E94F3046CEA74E0802F90E046
:100770000E941B028DE894E00E94F3048CEA94E04E
:100780000E94F30483E994E00E94F30410E015C092
:10079000E1E0F0E0EC0FFD1FE10FF11D80816CEA5C
:1007A00074E090E00E941B028CEA94E00E94F30443
:1007B0008DEB93E00E94F3041F5F183048F38EEB3B
:1007C00093E00E94080581E001C082E028960FB600
:1007D000F894DEBF0FBECDBFDF91CF911F910F9177
:1007E000FF90EF90DF90CF90BF90AF909F908F9051
:1007F0007F9008951F920F920FB60F9211242F939E
:100800003F934F935F936F937F938F939F93AF9398
:10081000BF93CF93EF93FF934C9912C062E085E0B2
:1008200090E00E9456040E940501C82F62E085E016
:1008300090E00E944A04C0FF03C080E00E946B0267
:10084000FF91EF91CF91BF91AF919F918F917F9148
:100850006F915F914F913F912F910F900FBE0F902D
:100860001F90189590E2499FA0011124862B482BD8
:1008700040654CBD84B18C6284B90895FC0140A1EF
:1008800021E030E002C0220F331F6A95E2F7242BEB
:1008900020A30895FC0140A121E030E002C0220F16
:1008A000331F6A95E2F7242B20A30895FC0190A141
:1008B00021E030E002C0220F331F6A95E2F7209555
:1008C000292320A308958EBD0DB407FEFDCF8EB55C
:1008D000089520918A0140918B0150918C0130E064
:1008E00024173507C9F0E0918801F0E0E857FE4F82
:1008F0008583809188018F5F8093880180918A0130
:100900008F5F80938A018091880190E04817590792
:1009100029F41092880102C083E0089581E00895CF
:10092000F8943091C00032603093C0003091C10023
:1009300038613093C1003091C10030683093C100FC
:100940003091C200232B422B4093C2008093C400FD
:100950009093C500623061F028F461110DC0809160
:10096000C2000DC0643041F48091C200846007C0B1
:100970008091C200826003C08091C2008660809333
:10098000C20078940895811123C020919301409171
:1009900094015091950130E024173507F1F0E09172
:1009A0009101F0E0EF56FE4F6583809191018F5FDA
:1009B00080939101809193018F5F80939301809147
:1009C000910190E04817590751F41092910107C026
:1009D000813039F4862F0C94690482E0089581E017
:1009E000089584E60895CF93DF93EC01699166231F
:1009F00031F08091930180E00E94C304F7CF809191
:100A0000C10080628093C10081E0DF91CF910895A1
:100A1000CF93DF93EC01699180919301662321F0DC
:100A200080E00E94C304F7CF6DE080E00E94C30421
:100A30006AE080E00E94C3048091C10080628093DC
:100A4000C10081E0DF91CF910895811124C0809190
:100A50009301882309F445C0E0919201F0E0EF563C
:100A6000FE4F8581FB018083809192018F5F80938F
:100A70009201809193018150809393018091920122
:100A800090E020919401309195018217930739F5F8
:100A90001092920124C0813031F580918A0188231F
:100AA00021F1E0918901F0E0E857FE4F8581FB01DB
:100AB0008083809189018F5F8093890180918A0171
:100AC000815080938A018091890190E020918B016F
:100AD00030918C018217930711F41092890181E003
:100AE000089584E0089584E6089585E008951F92AE
:100AF0000F920FB60F9211242F933F934F935F9352
:100B00006F937F938F939F93AF93BF93EF93FF93D5
:100B1000CF93DF931F92CDB7DEB78091A8048130C9
:100B200011F45A9A01C05A9819828091930188232E
:100B3000F1F0BE016F5F7F4F80E00E942505898143
:100B40008093C6005A980F90DF91CF91FF91EF915B
:100B5000BF91AF919F918F917F916F915F914F91D5
:100B60003F912F910F900FBE0F901F90189580917D
:100B7000C1008F7D8093C100E5CF9091C000892F87
:100B8000807194FD80E108959091C000892F887054
:100B900093FD88E008959091C000892F847092FDA4
:100BA00084E008951F920F920FB60F9211242F9395
:100BB0003F934F935F936F937F938F939F93AF93E5
:100BC000BF93EF93FF938091A804813011F45B9A57
:100BD00001C05B980E94BD05882329F08091AB0479
:100BE0008F5F8093AB040E94C405882329F0809115
:100BF000AA048F5F8093AA040E94CB05882329F062
:100C00008091A9048F5F8093A90480918A01843028
:100C100091F45B98FF91EF91BF91AF919F918F916C
:100C20007F916F915F914F913F912F910F900FBEE8
:100C30000F901F9018958091C6000E946904E9CF1B
:100C4000FB01DC010D900020E9F7119701900D9256
:100C50000020E1F70895BB274A3031F4992322F4AC
:100C6000BDE2909581959F4F0C943706BB27FB0101
:100C70005527AA27880F991FAA1FA41710F0A41B95
:100C800083955051B9F7A05DAA3308F0A95DA193EF
:100C9000009779F7B111B1931192CB010C945006E2
:100CA000DC01FC01672F71917723E1F7329704C0D3
:100CB0007C916D9370836291AE17BF07C8F308955E
:040CC000F894FFCFD6
:100CC4000301052355555555000000000000080098
:100CD4000000000000000000000000000000000010
:100CE4000000000000000000000000000000000000
:100CF40000000000000000000000000000000000F0
:100D040000000000000000000000000000000000DF
:100D140000000000000000000000000000000000CF
:100D240000000000000000000000000000000000BF
:100D340000000000000000000000000000000000AF
:100D4400000000000000000000000004000000009B
:100D5400000000000002000000000000000000008D
:100D6400000000000000000000000000000000007F
:100D7400000000000000000000000000000000006F
:100D8400000000000000000000000000000000005F
:100D9400000000000000000000000000000000004F
:100DA400000000000000000000000000000000003F
:100DB400000000000000000000000000000000002F
:100DC400000000000000000000000000000000001F
:100DD400000000000000000000000000000000000F
:100DE40000000000000000000000000000000000FF
:100DF40000000000000000000000000000000000EF
:100E040000000000000000000000000000000000DE
:100E140000000000000000000000000000000000CE
:100E240000000000000000000000000000000000BE
:100E340000000000000000000000000000000000AE
:100E4400000000000000000000000000000000009E
:100E5400000000000000000000000000000000008E
:100E6400000000000000000000000000000000007E
:100E7400000000000000000000000000000000006E
:100E8400000000000000000000000000000000005E
:100E9400000000000000000000000000000000004E
:100EA400000000000000000000000000000000003E
:100EB400000000000000000000000000000000002E
:100EC400000000000000000000000000000000001E
:100ED400000000000000000000000000000000000E
:100EE40000000000000000000000000000000000FE
:100EF40000000000000000000000000000000000EE
:100F040000000000000000000000000000000000DD
:100F140000000000000000000000000000000000CD
:100F240000000000000000000000000000000000BD
:100F340000000000000000000000000000000000AD
:100F4400000000000000000000000000000000009D
:100F540000000000000043414E206D65737361671B
:100F6400652073656E7420746F20627566666572A1
:100F74003E00205B20002578003078002C20005DA6
:100F84002000496E697469616C697A6174696F6E75
:100F940020646F6E65203E005B4D43503235313521
:100FA4005D5B6D63703235313547657453746174BC
:100FB40075735D3A3A5B43414E535441545D5B0053
:100FC4005D005B4D4350323531355D5B6D6370328E
:100FD4003531354765744572726F72466C6167735B
:100FE4005D3A3A5B45464C475D5B005B4D4350328E
:100FF4003531355D5B6D6370323531355265616411
:10100400526563656976654275666665725D3A3AEE
:10101400004944483A002049444C3A002049443AA3
:1010240020534944002049443A204549440020497A
:10103400443A203F00205254523A2059002052543E
:10104400523A204E00205254523A203F0020444C41
:10105400433A00203A3A2000019A0701AC03000009
:0810640000009A070088030058
:00000001FF
